S113001009289115031190158F1D8F3C101183151C
S1230020911111110D008E1D881D030BC615300B8C15CC0B8D15020BC115380B8115883BDE
S12300400E003F0B84152428801D841BD00B0412033424282B28063A863A2E280F302E2871
S12300600F3C380B81150E00352813354D2806343A284328981D9919C80B191203304C281D
S1230080991D13394C28991D9819C80B181203304C28981D13394C282E284E2806345128E7
S12300A06128941D123773289519640B151203307328951D123B923E13307128923BA019DB
S12300C07328951D923673289419640B141203307328941D923A123F13307128923BA0192C
S12300E07328133873287428863477288728961D923599289719640B171203309928971DAC
S12301009239123D93309728123AA1199928971D123599289619640B161203309928961DCF
S12301201239923D93309728123AA1199928933899289A289234A7289233A828063EA219E1
S1230140C80B22120330A828923F063AA728A21DA9289234B5281232B728863EA319C80B08
S123016023120330B728123EB528863AA31DB828A0160335C7289234C728CD209335C72871
S12301800C0B20120330CC28A01D9238CC28933D9C1D9D1DA01DCC28DC289C19FA0B1C1290
S12301A00330DA289C1D9D191E0B1D120330DA2893390C00933D0C00A1160335EB2892348E
S12301C0EB28F1201336EB280C0B21120330F028A11D9238F028933D9E1D9F1DA11DF02849
S12301E000299E19FA0B1E120330FE289E1D9F191E0B1F120330FE28133A0C00133E0C00B1
S123020092301229063E9A19FA0B1A12033014299A1D9B19320B1B12033014299B1D923C7A
S10D0220063A14299A1D9B1D2E288E
S10507FE1328BA
S30500001230B8
S903FFFFFE
