:030000000203A94F
:0C03A900787FE4F6D8FD75812D0203F08A
:10003E00E52A7004D287801AC287E52CB40105E444
:10004E00F529F52C0529E529D394054005E4F52974
:0B005E00F52AE52B7003C28622D28633
:010069002274
:0305E600010F0101
:1005560020970575140180037514022094057527EC
:0D056600028003752701850B10750D012221
:10008E00E50FB401190511E511D3940A4013E4F5F7
:10009E000F309505750B028008750B018003E4F592
:1000AE0011E50B605D0508E508D394024059E4F5AF
:1000BE0008E50BB4011D20951AE510640160147556
:1000CE000901750E01751902E50D6401601C750CB0
:1000DE00018017E50BB40215309512E5106402602D
:1000EE000C750901E4F50E751901850B10E509B4BF
:1000FE000109E4F509851918751A01E4F50DF50BDA
:10010E008005E4F508F509E50E7028E51470030284
:10011E0001ACB40108751201E4F5198006E4F5127C
:10012E00751901851918751A01752A01752C01E4C6
:10013E00F51422E50C7067E5146020B40108751201
:10014E0001E4F5198006E4F5127519038519187581
:10015E001A01752A01752C01E4F514E5126401707B
:10016E003DE5276039B4011DE4F527751804752B9C
:10017E0001E513700B751301750A01751A018012D2
:10018E00750A018013E513700FF527F518751A011E
:0E019E00F52B752A01752C01752A01752C01AF
:0101AC002230
:03003B00020511AA
:10051100C0E0E5EC30E506750F01751100E5EC3042
:10052100E70B209705751401800375140275EC0023
:03053100D0E032E5
:03008B000205D992
:0705D900538FE77513003298
:1002630030A06E20941DE4F522E5217038F52805B1
:1002730020E520C394C84030752702752101E4F5B9
:10028300238025E4F520E523701BF528752401055B
:1002930022E522D394024010E4F522E5269432505D
:1002A3000705268003752801E524B401200525E50B
:1002B30025C394C8405BE4F525F524E52694144052
:1002C30050E4F526752701752301F52122E4F52570
:1002D3002220941CE4F522E5217033F5280520E55E
:1002E30020C39405402B752702752101E4F52322D1
:1002F300E4F520E5237017F5280522E522C39405CC
:10030300400FE4F522752301F52175270122752895
:0103130001E8
:0103140022C6
:10053400E518146010146010146010146010240482
:10054400700F02058F0201AD0204350204AC1203E0
:0205540015226E
:10058F00E51AB40115E4F51AD292D280D283D29132
:0B059F00D281D284D290D282D2852279
:1001AD00E51A6401701EF51AD292D280D283D291D3
:1001BD00D281D284D290D282D285F51DF51EF51B47
:1001CD00F51CF51F051DE51DC3943C400FE4F51D01
:1001DD00051FE51FD394084003E4F51FE51FB4097F
:1001ED000050569001F7F8282873020212020218E7
:1001FD0002021E02022402022A020230020236020A
:10020D00023C020242D285C292802ED292C28080DE
:10021D0028D280C2838022D283C291801CD291C207
:10022D00818016D281C2848010D284C290800AD27D
:10023D0090C2828004D282C285051BE51BC39464E3
:10024D004013E4F51B051CE51C941E4008E4F51C49
:06025D00F518751A0122DC
:10043500E51A6401701EF51AD292D280D283D29148
:10044500D281D284D290D282D285F51DF51EF51BBC
:10045500F51CF51F051DE51DC3941E400FE4F51D94
:10046500051FE51FD394024003E4F51FE51F146043
:100475000D14601024027010D284C291800AD291AA
:10048500C2818004D281C284051BE51BC3946440EC
:1004950015E4F51B051CE51C9405400AE4F51CF55F
:0704A50018751A01F50C2285
:1004AC00E51A6401701CF51AD292D280D283D291D3
:1004BC00D281D284D290D282D285F51DF51EF51F41
:1004CC00F515051DE51DC3943C4005E4F51D051F00
:1004DC00E51F14600F14601114601324037025D2EF
:1004EC0085C29022D290C28222D282C28522E4F5A9
:1004FC001FF518751A010515E515C3940A4005E496
:04050C00F515F519D3
:0105100022C8
:10031500E51A6401701EF51AD292D280D283D29169
:10032500D281D284D290D282D285F51DF51EF51FD9
:10033500F516F517E50AB40107E4F50AF516F517FC
:10034500E51F14601B14600714602B2403703BC267
:1003550092C280C283051DE51DC3940A402C800FFF
:10036500D292D280D283051DE51DC3940A401BE4B9
:10037500F51D051F8014D292D280D283051DE51D7F
:10038500C394644005E4F51DF51F0516E516C394F1
:10039500644010E4F5160517E517940A4005E4F5E1
:0303A50017F51336
:0103A8002232
:1005AA0053A87F1205E01200031205BD1205CC43C1
:0305BA00A88022F4
:0605E000E4F596F59522FA
:10000300E4F5B175B2FF7580FF53B3F843B407430A
:10001300900743B3B043B4B053B3B743B44853901A
:10002300B753ACFE43AD0153B0FE53B57F75C7AABA
:0600330075C755F5A3227C
:0F05BD00E4F5C875C9A075CAEF75CBD8D2CA22AC
:0D05CC0043E9C143EAB043EBB0439B022278
:10006A00E5187008E52A7004E5287004E4F52D22E5
:0F007A00052DE52DD3940A4006E4F52D438702AA
:010089002254
:100573001205AA12055630CFFDC2CF120263120034
:0C0583008E12003E12053412006A80EA5D
:1003B500020573E493A3F8E493A34003F68001F2E6
:1003C50008DFF48029E493A3F85407240CC8C33349
:1003D500C4540F4420C8834004F456800146F6DF18
:1003E500E4800B01020408102040809005E6E47EBD
:1003F500019360BCA3FF543F30E509541FFEE4930D
:10040500A360010ECF54C025E060A840B8E493A3D3
:10041500FAE493A3F8E493A3C8C582C8CAC583CAFE
:10042500F0A3C8C582C8CAC583CADFE9DEE780BEB6
:0105E9000011
:00000001FF
