:0300000002025D9C
:0C025D00787FE4F6D8FD75812B0202A426
:1004F30012052A1204D630CFFDC2CF1202E9120030
:0C0503008E12003E1204B412006A80EA5E
:10003E00E5287004D287801AC287E52AB40105E448
:10004E00F527F52A0527E527D394054005E4F5277E
:0B005E00F528E5297003C28622D28637
:010069002274
:1004B400E51F1460101460101460101460102404FC
:1004C400700F02050F0201A70203620203D912048E
:0204D4003E22C6
:10050F00E521B40115E4F521D292D280D283D291A4
:0B051F00D281D284D290D282D28522F9
:1001A700E5216401701EF521D292D280D283D291CB
:1001B700D281D284D290D282D285F524F525F52238
:1001C700F523F5260524E524C3943C400FE4F524E4
:1001D7000526E526D394084003E4F526E526B40969
:1001E7000050569001F1F828287302020C020212FF
:1001F70002021802021E02022402022A020230022E
:10020700023602023CD285C292802ED292C28080F0
:1002170028D280C2838022D283C291801CD291C20D
:10022700818016D281C2848010D284C290800AD283
:1002370090C2828004D282C2850522E522C39464DB
:100247004013E4F5220523E523941E4008E4F52333
:06025700F51F75210122D4
:10036200E5216401701EF521D292D280D283D2910E
:10037200D281D284D290D282D285F524F525F5227B
:10038200F523F5260524E524C3941E400FE4F52445
:100392000526E526D394024003E4F526E5261460FB
:1003A2000D14601024027010D284C291800AD2917E
:1003B200C2818004D281C2840522E522C3946440B2
:1003C20015E4F5220523E5239405400AE4F523F517
:0703D2001F752101F50B224C
:1003D900E5216401701CF521D292D280D283D29199
:1003E900D281D284D290D282D285F524F525F52600
:1003F900F51E0524E524C3943C4005E4F5240526AF
:10040900E52614600F14601114601324037025D2BB
:1004190085C29022D290C28222D282C28522E4F57C
:1004290026F51F752101051EE51EC3940A4005E442
:04043900F51EF52097
:01043D00229C
:10043E00E521B4011BE4F521D292D280D283D29170
:10044E00D281D284D290D282D285F524F525F5269A
:10045E000524E524C3941E400FE4F5240526E52665
:10046E00D394024003E4F526E52614600C14600EC6
:10047E002402700ED283C29222D292C28022D280E5
:03048E00C2832204
:10052A0053A87F12056D12000312054012054F12DF
:06053A00055C43A88022CD
:06056D00E4F596F595226D
:10000300E4F5B175B2FF7580FF53B3F843B407430A
:10001300900743B3B043B4B053B3B743B44853901A
:10002300B753ACFE43AD0153B0FE75C7AA75C755B0
:03003300F5A32210
:0F054000E4F5C875C9A075CAEF75CBD8D2CA2229
:0D054F0043E9C143EAB043EBB0439B0222F5
:0A055C00758F077586CF759C042289
:03003600010E01B7
:1004D6002097057512018003751202209405751B7D
:0D04E600028003751B01850A0F750C0122B1
:10008E00E50EB401190510E510D3940A4013E4F5FA
:10009E000E309505750A028008750A018003E4F595
:1000AE0010E50A605D0508E508D394024059E4F5B1
:1000BE0008E50AB4011D20951AE50F640160147558
:1000CE000901750D01752002E50C6401601C750BAC
:1000DE00018017E50AB40215309512E50F6402602F
:1000EE000C750901E4F50D752001850A0FE509B4BB
:1000FE000109E4F50985201F752101E4F50CF50AC7
:10010E008005E4F508F509E50D7028E51270030287
:10011E0001A6B40108751101E4F5208006E4F5117D
:10012E0075200185201F752101752801752A01E4AE
:10013E00F51222E50B7061E5126020B4010875110D
:10014E0001E4F5208006E4F51175200385201F7566
:10015E002101752801752A01E4F512E5116401707B
:10016E0037E51B6022B4010B751301751F04752949
:10017E00018007E4F513F51FF52975210175280196
:10018E00752A01E4F51B22E513B4010CE51F640486
:08019E006006751F04752101C4
:0101A6002236
:03003B000204912B
:10049100C0E0E5EC30E506750E01751000E5EC30C5
:1004A100E70B209705751201800375120275EC00A8
:0304B100D0E03266
:03008B0002056605
:07056600538FE7751D003201
:10006A00E51F7008E5287004E51C7004E4F52B22EE
:0F007A00052BE52BD3940A4006E4F52B438702B0
:010089002254
:1002E900209423E4F516E515703EF51C0514E51474
:1002F900C394C84036751B02751501751D01438FDE
:1003090008E4F5178025E4F514E517701BF51C754D
:1003190018010516E516D394024010E4F516E51AFE
:1003290094325007051A8003751C01E518640170A1
:10033900240519E519C394C8401EE4F519F518E513
:100349001A94144013E4F51AE51D700C751B017518
:080359001701F51522E4F51966
:010361002279
:100269000204F3E493A3F8E493A34003F68001F2B4
:1002790008DFF48029E493A3F85407240CC8C33396
:10028900C4540F4420C8834004F456800146F6DF65
:10029900E4800B0102040810204080900036E47EBF
:1002A900019360BCA3FF543F30E509541FFEE4935A
:1002B900A360010ECF54C025E060A840B8E493A321
:1002C900FAE493A3F8E493A3C8C582C8CAC583CA4C
:1002D900F0A3C8C582C8CAC583CADFE9DEE780BE04
:0100390000C6
:00000001FF
