:03000000020F09E3
:0C0F0900787FE4F6D8FD758186020F5059
:05125C00011600C1268F
:100003001213B41211281213841213C1D214E5C3AC
:1000130030E0FB53C3FE12139C120452E516146026
:10002300111460121460132403701405161207CD03
:1000330080DC051680D8051680D4E4F51680CFE45D
:04004300F51680CA64
:03004B0002117C23
:0B117C00C0E0C0D075D000C000C0076C
:1011870030272174082517F8A6E774082517F8E60D
:10119700B42304D226C2270517E517D3940D401AA6
:1011A700C227801685E708E508B4240ED2277517ED
:0A11B700017F0D7808E4F608DFFC64
:0911C100D007D000D0D0D0E032FC
:101128007589FFE4F5D4F592F580F5E97591FFF539
:10113800D5F593F588F5EA7599FFF5D6F594F59008
:10114800F5EE75A1FFF5D7F595F598F5EF75B1FFB3
:10115800F5DAF596F5A0F5F175B97FF5DBF59A7531
:10116800B04075F318F5F275C1FFF5DCF59B75C055
:0411780018F5F42250
:0D13B40075D920E4F58AF5FFF5E1F5D822A2
:0A13C100E4F5C375B4C775B28B22C2
:1013840075E63375E20675E32CE4F5E4F5E575A935
:081394000875A88043E3022262
:10126100C10E013700013F00014000013800013982
:1012710000014100014200013500013600013D003D
:0E128100013E00012500012600012700C100EA
:1007CD0030140920130620100312063F30130312B4
:1007DD00133D301003120C93E53B600302086B30A0
:1007ED000C0A202207753B01C2228072300B07755F
:1007FD003B02C2218068301607753B03C21B805E29
:10080D0030120A201707753B04C217805130150AA4
:10081D00201A07753B05C21A8044300707753B0641
:10082D00C21D803A300607753B07C21C8030300967
:10083D0007753B08C21F8026300F07753B09C22381
:10084D00801C300A07753B0AC220801230110775D3
:10085D003B0BC2258008300805753B0CC21E300CC1
:10086D0008E53BB40103120BCE300B08E53BB40297
:10087D00031212C2301608E53BB4030312131430F1
:10088D001208E53BB404031210AB301508E53BB478
:10089D000503120DEB300708E53BB406031212EB0E
:1008AD00300608E53BB40703120E7B300908E53B23
:1008BD00B408031211CA300F08E53BB40903120F37
:1008CD0095300A08E53BB40A03121213301108E5FE
:1008DD003BB40B03121020300808E53BB40C031297
:0308ED000D4F228A
:10063F00201924D219E4F53FF53AF53CFF74652FE4
:10064F00F8E4F674542FF8E4F674432FF8E4F60F39
:10065F00BF11EA7865761E053FE53FD3941450032A
:10066F000207CCE4F53FE53AB40C0040030207CC97
:10067F00900686F82828730206AA0206D20206D729
:10068F0002070502070A0207320207360207640251
:10069F0007680207900207970207C5E4FF74652FEA
:1006AF00F8E6FE74762FF8A6060FBF11F012004E73
:1006BF00E4FF74762FF8E6FE74652FF8A6060FBFD9
:1006CF0011F0227864020792E4FFC374109F245440
:1006DF00F8E6FE74762FF8A6060FBF11ED12004E46
:1006EF00E4FF74762FF8E6FEC374109F2454F8A627
:1006FF00060FBF11ED227843020792E4FF74432FD8
:10070F00F8E6FE74762FF8A6060FBF11F012004E12
:10071F00E4FF74762FF8E6FE74432FF8A6060FBF9A
:10072F0011F0227875805CE4FFC374109F2465F884
:10073F00E6FE74762FF8A6060FBF11ED12004EE4F9
:10074F00FF74762FF8E6FEC374109F2465F8A60693
:10075F000FBF11ED227854802AE4FF74542FF8E66E
:10076F00FE74762FF8A6060FBF11F012004EE4FFAD
:10077F0074762FF8E6FE74542FF8A6060FBF11F00B
:10078F00227853761E053A22E4FFC374109F244348
:10079F00F8E6FE74762FF8A6060FBF11ED12004E85
:1007AF00E4FF74762FF8E6FEC374109F2443F8A677
:0D07BF00060FBF11ED227865761EE4F53AB5
:0107CC00220A
:10004E00E53C700E787616E6C39419500508761EB8
:10005E00053CE53CB401107876160816E6C39419F3
:10006E00500508761E053CE53CB40212787616085B
:10007E00160816E6C39419500508761E053CE53C95
:10008E00B40314787616081608160816E6C39419E3
:10009E00500508761E053CE53CB404167876160825
:1000AE0016081608160816E6C39419500508761E8B
:1000BE00053CE53CB40516787716081608160816A2
:1000CE000816E6C39419500508761E053CE53CB4A7
:1000DE0006167878160816081608160816E6C3943B
:1000EE0019500508761E053CE53CB40716787916BE
:1000FE000816081608160816E6C394195005087651
:10010E001E053CE53CB40816787A16081608160843
:10011E00160816E6C39419500508761E053CE53CF4
:10012E00B40916787B160816081608160816E6C3C4
:10013E009419500508761E053CE53CB40A16787CE9
:10014E00160816081608160816E6C3941950050860
:10015E00761E053CE53CB40B16787D16081608167F
:10016E0008160816E6C39419500508761E053CE5D8
:10017E003CB40C16787E160816081608160816E6F5
:10018E00C39419500508761E053CE53CB40D16784F
:10019E007F160816081608160816E6C39419500599
:1001AE0008761E053CE53CB40E1678801608160837
:1001BE001608160816E6C39419500508761E053C57
:1001CE00E53CB40F167881160816081608160816A0
:1001DE00E6C39419500508761E053CE53CB4101391
:1001EE007882160816081608160816E6C3941950D3
:1001FE0002053CE53CB41113788316081608160860
:10020E00167883E6C394015002053CE53CB4121106
:10021E00788416081608167884E6C39401500205F1
:10022E003CE53CB4130E788516081618E6C3940107
:10023E005002053CE53CB4140E788616E6C39401D4
:08024E005005E4F53C053A22DD
:100C9300202439D224E4F53FF53AF53CFF74652F5F
:100CA300F8E4F674542FF8E4F674432FF8E4F60FDF
:100CB300BF11EA7854761EC213C214C20CC20BC20F
:100CC30015C207C206C216C212E4F53B053FE53F53
:100CD300D394144076E4F53FE53A14603214603659
:100CE30014606124037064E4FF74542FF8E6FE7407
:100CF300762FF8A6060FBF11F012004EE4FF7476AC
:100D03002FF8E6FE74542FF8A6060FBF11F02278D1
:100D130064761E053A22E4FFC374109F2454F8E658
:100D2300FE74762FF8A6060FBF11ED12004EE4FFF6
:100D330074762FF8E6FEC374109F2454F8A6060FAA
:0B0D4300BF11ED227854761EE4F53A53
:010D4E002282
:10133D00201822D218E4FF74652FF8E4F674542FA8
:10134D00F8E4F674432FF8E4F60FBF11EA785C76F3
:05135D001EC214C210C5
:011362002268
:100BCE00202227D222E4F53AF53CFF74652FF8E493
:100BDE00F674542FF8E4F674432FF8E4F60FBF11B1
:100BEE00EAE4F53CF538F539F53A0538E538D394AD
:100BFE00145003020C92E4F538E53A1460111460B7
:100C0E003614603A146065240470767865802AE4A0
:100C1E00FF74652FF8E6FE74762FF8A6060FBF1147
:100C2E00F012004EE4FF74762FF8E6FE74652FF88E
:100C3E00A6060FBF11F0227875761E053A22E4FF44
:100C4E00C374109F2465F8E6FE74762FF8A6060F7F
:100C5E00BF11ED12004EE4FF74762FF8E6FEC3745A
:100C6E00109F2465F8A6060FBF11ED22E4F53A3069
:100C7E001506753B05C21A22301209753B04C217C0
:040C8E0022E4F53A2D
:010C9200223F
:10025600E53C7012787E16E6C39419500918761E8E
:10026600787F761E053CE53CB40119787E16181693
:10027600787F16787DE6C39419500918761E788023
:10028600761E053CE53CB4021F787E161816787F6C
:1002960016787C16788016787CE6C394195009186F
:1002A600761E7881761E053CE53CB40325787E16DD
:1002B6001816787F16787C16788016787B167881E3
:1002C60016787BE6C39419500918761E7882761E36
:1002D600053CE53C6404702B787E161816787F166C
:1002E600787C16788016787B16788116787A167858
:1002F6008216787AE6C39419500918761E788376A2
:100306001E053CE53C6405702F787D16787F1678CF
:100316007C16788016787B16788116787A1678821D
:10032600167879167883167879E6C39419500918E1
:10033600761E7884761E053CE53C6406702F787C34
:1003460016788016787B16788116787A1678821653
:100356007879167883167878167884167878E6C3CE
:100366009419500918761E7885761E053CE53C647E
:1003760007702F787B16788116787A167882167829
:1003860079167883167878167884167877167885AD
:10039600167877E6C39419500918761E7886761E65
:1003A600053CE53C64087028787A167882167879D8
:1003B60016788316787816788416787716788516E0
:1003C6007876167886167876E6C394195002053C38
:1003D600E53CB409227879167883167878167884FD
:1003E600167877167885167876167886167879E6EA
:1003F600C394015002053CE53CB40A1C7878167893
:10040600841678771678851678761678861678782C
:10041600E6C394015002053CE53CB40B167877160A
:100426007885167876167886167877E6C39401501E
:1004360002053CE53CB40C13787616788616787679
:0C044600E6C394015005E4F53C053A22A1
:1012C20020210FD2217F117865E4F608DFFCC20CE1
:1012D200C20B301206753B04C21722301506753B4D
:0812E20005C21A22785C761E99
:0112EA0022E1
:100DEB00201A27D21AE4FF74652FF8E4F674542FF7
:100DFB00F8E4F674432FF8E4F60FBF11EA786D763A
:100E0B001EE4F541F542F53CF53A0541E541D39435
:100E1B0014405CE4F5410542E542D394004050E4B4
:100E2B00F542E53A14602B047042E4FF74652FF829
:100E3B00E6FE74762FF8A6060FBF11F0120256E4E9
:100E4B00FF74762FF8E6FE74652FF8A6060FBF1118
:100E5B00F022E4F53A301206753B04C21722300C2F
:0F0E6B0006753B01C22222786D761E22E4F53A0D
:010E7A002255
:1012EB00201D0FD21D7F117865E4F608DFFCC215B7
:1012FB00C207301206753B04C21722300C06753B31
:08130B0001C22222785C761E6B
:0113130022B7
:100E7B00201C27D21CE4FF74652FF8E4F674542F62
:100E8B00F8E4F674432FF8E4F60FBF11EA784B76CB
:100E9B001EE4F535F536F53CF53A0535E535D394D5
:100EAB0014405AE4F535F536E53A14602B04704AD4
:100EBB00E4FF74432FF8E6FE74762FF8A6060FBFF7
:100ECB0011F0120256E4FF74762FF8E6FE74432FEE
:100EDB00F8A6060FBF11F022C206300C06753B01B7
:100EEB00C22222301206753B04C21722301506753A
:0D0EFB003B05C21A22785C761E22E4F53A0F
:010F080022C6
:1010AB00201722D217E4F525F526F527C200FF7489
:1010BB00652FF8E4F674542FF8E4F674432FF8E434
:1010CB00F60FBF11EA0525E525D39428404EE4F52C
:1010DB00250526A200B39200E526C394095014E41B
:1010EB00FF74652FF8300004761E8002E4F60FBF04
:1010FB0011EF22E526D3941440220527E4F526C2EE
:10110B0000E527D394014014E4F527300C06753B1A
:0C111B0001C22222301505753B05C21AE6
:0111270022A5
:10131400201B0FD21B7F117865E4F608DFFCC21294
:10132400C216301506753B05C21A22300C06753BF1
:0813340001C22222785C761E42
:01133C00228E
:1011CA00E4FF201F1FD21FF528F529C20174652FDD
:1011DA00F8E4F674542FF8E4F674432FF8E4F60FA3
:1011EA00BF11EA220529E52970020528D394F4E5FE
:1011FA002894014013E4F528F529B2013001057855
:08120A006D761E22E4786DF6FA
:0112120022B9
:100F9500E4FF202321D223F52AC202F52BF52C7478
:100FA500652FF8E4F674542FF8E4F674432FF8E44B
:100FB500F60FBF11EA22052AE52AD394B4405BE473
:100FC500F52AE52C1460221460312402704CB2021B
:100FD500200213786D761E052BE52BD39402403A3B
:100FE500E4F52B052C22E4800E052BE52BD3940389
:100FF5004028052CE4F52B786DF622300C06753B60
:1010050001C22222301206753B04C2172230150692
:0A101500753B05C21A22785C761EB6
:01101F0022AE
:10121300E4FF20201FD220F52DF52EC20374652F85
:10122300F8E4F674542FF8E4F674432FF8E4F60F59
:10123300BF11EA22052EE52E7002052DD394F4E5A5
:101243002D94014013E4F52DF52EB20330030578F8
:081253004B761E22E4784BF6F5
:01125B002270
:10102000E4FF202521D225F52FC204F530F53174D7
:10103000652FF8E4F674542FF8E4F674432FF8E4BF
:10104000F60FBF11EA22052FE52FD394B4405BE4DD
:10105000F52FE5311460221460312402704CB20483
:10106000200413784B761E0530E530D39402403AC5
:10107000E4F530053122E4800E0530E530D39403E9
:1010800040280531E4F530784BF622300C06753BEC
:1010900001C22222301206753B04C2172230150607
:0A10A000753B05C21A22785C761E2B
:0110AA002223
:100D4F00E4FF201E21D21EF532C205F533F53474AF
:100D5F00652FF8E4F674542FF8E4F674432FF8E493
:100D6F00F60FBF11EA220532E532D39464406CE4EA
:100D7F00F532E53414602C1460422402705DB20524
:100D8F00200517786D761EE4784BF60533E533D3DF
:100D9F00940A4047E4F533053422E4786DF6784B36
:100DAF00761E220533E533D39401402F0534E4F545
:100DBF0033786DF6785C761E784BF622300C06751C
:100DCF003B01C22222301206753B04C21722301596
:0B0DDF0006753B05C21A22785C761EE8
:010DEA0022E6
:10139C00051AE51AD3941D4003E4F51A1208F0124D
:0813AC0009E6120ADA021290B0
:1008F0007865E6D3951A4004D2828002C282786677
:10090000E6D3951A4004D2898002C2897867E6D37B
:10091000951A4004D28C8002C28C7868E6D3951A6E
:100920004004D28F8002C28F7869E6D3951A4004C2
:10093000D2C28002C2C2786AE6D3951A4004D2922B
:100940008002C292786BE6D3951A4004D295800259
:10095000C295786CE6D3951A4004D2988002C2986A
:10096000786DE6D3951A4004D29F8002C29F786EBC
:10097000E6D3951A4004D2A28002C2A2786FE6D3D1
:10098000951A4004D2A58002C2A57870E6D3951AC4
:100990004004D2B08002C2B07871E6D3951A400408
:1009A000D2B38002C2B37872E6D3951A40054318D9
:1009B0000180035318FE7873E6D3951A4005431857
:1009C0000280035318FD7874E6D3951A4005431846
:1009D0000480035318FB7875E6D3951A4004431836
:0609E00008225318F72263
:1009E6007854E6D3951A4004D2818002C2817855A4
:1009F600E6D3951A4004D2888002C2887856E6D398
:100A0600951A4004D28B8002C28B7857E6D3951A8A
:100A16004004D28E8002C28E7858E6D3951A4004DE
:100A2600D2C18002C2C17859E6D3951A4004D29148
:100A36008002C291785AE6D3951A4004D294800275
:100A4600C294785BE6D3951A4004D2978002C29787
:100A5600785CE6D3951A4004D29A8002C29A785DF1
:100A6600E6D3951A4004D2A18002C2A1785EE6D3ED
:100A7600951A4004D2A48002C2A4785FE6D3951AE0
:100A86004004D2A78002C2A77860E6D3951A400434
:100A9600D2B28002C2B27861E6D3951A4004D2B5CA
:100AA6008002C2B57862E6D3951A400543181080D5
:100AB600035318EF7863E6D3951A40054318208050
:100AC600035318DF7864E6D3951A4004431840228E
:040AD6005318BF22D0
:100ADA007843E6D3951A4004D2808002C2807844D3
:100AEA00E6D3951A4004D2838002C2837845E6D3BE
:100AFA00951A4004D28A8002C28A7846E6D3951AA9
:100B0A004004D28D8002C28D7847E6D3951A4004FC
:100B1A00D2C08002C2C07848E6D3951A4004D29067
:100B2A008002C2907849E6D3951A4004D293800293
:100B3A00C293784AE6D3951A4004D2968002C296A6
:100B4A00784BE6D3951A4004D2998002C299784C20
:100B5A00E6D3951A4004D2A08002C2A0784DE6D30B
:100B6A00951A4004D2A38002C2A3784EE6D3951AFE
:100B7A004004D2A68002C2A6784FE6D3951A400452
:100B8A00D2B18002C2B17850E6D3951A4004D2B4E9
:100B9A008002C2B47851E6D3951A40054318808082
:100BAA000353187F7852E6D3951A400543190180FA
:100BBA00035319FE7853E6D3951A400443190222C7
:040BCA005319FD229C
:101290007F0AC2C4E51930E102D2C4E51925E0F5A0
:1012A00019E51830E703431901E51825E0F518C2E0
:1012B000C3E4FE0EBE0AFCD2C3E4FE0EBE0AFCDF8F
:0112C000D15C
:0112C100220A
:1004520020260302063EC226E4F53BE509B47014E9
:10046200E50BB4770FE50FB46B0A121363D213C214
:1004720010C21822E509B47014E50BB4770FE50F2A
:10048200B4720A121363D210C213C22422E509B451
:10049200731AE50BB46E15E50FB474102013030242
:1004A200063E121363D215C207C21A22E509B473BB
:1004B2001AE50BB46E15E50FB46E10201303020695
:1004C2003E121363C215D207C21D22E509B4611A96
:1004D200E50BB46115E50EB4741020130302063E59
:1004E200121363D212C216C21722E509B4611AE5C9
:1004F2000BB46115E50EB46E1020130302063E1212
:100502001363C212D216C21B22E509B4631AE50BA9
:10051200B46E15E513B4741020130302063E1213D1
:1005220063D20CC20BC22222E509B4631AE50BB4F2
:100532006E15E513B46E1020130302063E12136308
:10054200C20CD20BC22122E509B46315E50BB46ECD
:1005520010E512B4720B20130302063ED206C21C2F
:1005620022E50964727021E50BB46D1CE50DB476C9
:1005720017E50F701320130302063ED209C20AC206
:1005820011C208C20FC21F22E50964727022E50B74
:10059200B46D1DE50DB47618E50FB46B132013038B
:1005A20002063EC209C20AC211C208D20FC22322E7
:1005B200E5096474701FE50BB46D1AE50DB46F158F
:1005C200E50FB47410301374C209C20AC211D20802
:1005D200C20FC21E22E509B46119E50BB46414E529
:1005E2000D7010301356C209D20AC211C208C20FCE
:1005F200C22022E509B4611AE50BB46415E50DB415
:100602006B10301337C209C20AD211C208C20FC21C
:100612002522E50964727024E50B6473701EE50DF2
:10062200B47419121363D214C213C210C20CC20BD7
:0D063200C212C216C215C207C206C21922AA
:1013630075E724E5E530E7FB75E76FE5E530E7FB77
:1013730075E76BE5E530E7FB75E723E5E530E7FB6C
:011383002247
:100F1500020003E493A3F8E493A34003F68001F2EF
:100F250008DFF48029E493A3F85407240CC8C333DD
:100F3500C4540F4420C8834004F456800146F6DFAC
:100F4500E4800B010204081020408090125CE47ECE
:100F5500019360BCA3FF543F30E509541FFEE493A1
:100F6500A360010ECF54C025E060A840B8E493A368
:100F7500FAE493A3F8E493A3C8C582C8CAC583CA93
:100F8500F0A3C8C582C8CAC583CADFE9DEE780BE4B
:01128F00005E
:00000001FF
