S113001009289115031190158F1D8F3C101183151C
S1230020911111110D008E1D881D050BC615300B8C15EE0B8D15020BC115380B8115883BBA
S12300400E003F0B84152428801D841BD00B0412033424282B28063A2D280F302D280F3CE8
S1230060380B81150E00342813344C28063439284228961D9719C80B171203304B28971DC0
S123008013384B28971D9619C80B161203304B28961D13384B282D284D2806345028602825
S12300A0941D923672289519640B151203307228951D923A123E92337028123BA01972284D
S12300C0951D123672289419640B141203307228941D123A923E92337028123BA0197228AF
S12300E0923B7228732892347C2812337C28123F010B981512387C287D28A01603358F2865
S123010092348F28952093348F280C0B201203309428A01D020B9815123892389428933CDD
S12301209E1D9F1DA01D9428A4289E19FA0B1E120330A2289E1D9F191E0B1F120330A2284C
S123014093380C00933C0C001234AB28123C063A991D9A1DAB28010B18120330B428020BB0
S123016018120330B628C028063AD128063E9919C80B19120330D128991D981D1238D12851
S1230180063E9919FA0B19120330D128991D9A19320B1A120330D1289A1D981D1238923C87
S10701A0D1282D2809
S10507FE1328BA
S30500001230B8
S903FFFFFE
