:03000000020324D4
:0C032400787FE4F6D8FD75812B02036B96
:10003E00E5287004D287801AC287E52AB40105E448
:10004E00F527F52A0527E527D394054005E4F5277E
:0B005E00F528E5297003C28622D28637
:010069002274
:0305D800010E0110
:10053B002097057512018003751202209405751B17
:0D054B00028003751B01850A0F750C01224B
:10008E00E50EB401190510E510D3940A4013E4F5FA
:10009E000E309505750A028008750A018003E4F595
:1000AE0010E50A605D0508E508D394024059E4F5B1
:1000BE0008E50AB4011D20951AE50F640160147558
:1000CE000901750D01752002E50C6401601C750BAC
:1000DE00018017E50AB40215309512E50F6402602F
:1000EE000C750901E4F50D752001850A0FE509B4BB
:1000FE000109E4F50985201F752101E4F50CF50AC7
:10010E008005E4F508F509E50D7028E51270030287
:10011E0001A6B40108751101E4F5208006E4F5117D
:10012E0075200185201F752101752801752A01E4AE
:10013E00F51222E50B7061E5126020B4010875110D
:10014E0001E4F5208006E4F51175200385201F7566
:10015E002101752801752A01E4F512E5116401707B
:10016E0037E51B6022B4010B751301751F04752949
:10017E00018007E4F513F51FF52975210175280196
:10018E00752A01E4F51B22E513B4010CE51F640486
:08019E006006751F04752101C4
:0101A6002236
:03003B000204F6C6
:1004F600C0E0E5EC30E506750E01751000E5EC3060
:10050600E70B209705751201800375120275EC0042
:03051600D0E03200
:03008B000205CBA0
:0705CB00538FE7751D00329C
:1001A70030A079209423E4F516E515703EF51C057B
:1001B70014E514C394C84036751B02751501751DE7
:1001C70001438F08E4F5178025E4F514E517701B44
:1001D700F51C7518010516E516D394024010E4F5D1
:1001E70016E51A94325007051A8003751C01E518A5
:1001F700640170240519E519C394C84069E4F51929
:10020700F518E51A9414405EE4F51AE51D70577564
:100217001B01751701F51522E4F51922209422E434
:10022700F516E515703DF51C0514E514C394054056
:1002370035751B02751501751D01438F08E4F51708
:1002470022E4F514E517701BF51C0516E516C39493
:10025700054013E4F516751701F515E51D700775CB
:060267001B0122751C01C1
:01026D00226E
:10051900E51F146010146010146010146010240496
:10052900700F02057402026E0203B00204911204F4
:02053900272277
:10057400E521B40115E4F521D292D280D283D2913F
:0B058400D281D284D290D282D2852294
:10026E00E5216401701EF521D292D280D283D29103
:10027E00D281D284D290D282D285F524F525F52270
:10028E00F523F5260524E524C3943C400FE4F5241C
:10029E000526E526D394084003E4F526E526B409A1
:1002AE000050569002B8F82828730202D30202D9E1
:1002BE000202DF0202E50202EB0202F10202F70283
:1002CE0002FD020303D285C292802ED292C280809A
:1002DE0028D280C2838022D283C291801CD291C246
:1002EE00818016D281C2848010D284C290800AD2BC
:1002FE0090C2828004D282C2850522E522C3946414
:10030E004013E4F5220523E523941E4008E4F5236B
:06031E00F51F752101220C
:1003B000E5216401701EF521D292D280D283D291C0
:1003C000D281D284D290D282D285F524F525F5222D
:1003D000F523F5260524E524C3941E400FE4F524F7
:1003E0000526E526D394024003E4F526E5261460AD
:1003F0000D14601024027010D284C291800AD29130
:10040000C2818004D281C2840522E522C394644063
:1004100015E4F5220523E5239405400AE4F523F5C8
:070420001F752101F50B22FD
:10049100E5216401701CF521D292D280D283D291E0
:1004A100D281D284D290D282D285F524F525F52647
:1004B100F51E0524E524C3943C4005E4F5240526F6
:1004C100E52614600F14601114601324037025D203
:1004D10085C29022D290C28222D282C28522E4F5C4
:1004E10026F51F752101051EE51EC3940A4005E48A
:0404F100F51EF520DF
:0104F50022E4
:10042700E521B4011BE4F521D292D280D283D29187
:10043700D281D284D290D282D285F524F525F526B1
:10044700E52614601B14600714602A2403703AC25F
:1004570092C280C2830524E524C3940A402B800FEF
:10046700D292D280D2830524E524C3940A401AE4A9
:10047700F524052622D292D280D2830524E524C30F
:0A04870094644005E4F524F52622F4
:10058F0053A87F1205D21200031205A51205B4124B
:06059F0005C143A8802203
:0605D200E4F596F5952208
:10000300E4F5B175B2FF7580FF53B3F843B407430A
:10001300900743B3B043B4B053B3B743B44853901A
:10002300B753ACFE43AD0153B0FE53B57F75C7AABA
:0600330075C755F5A3227C
:0F05A500E4F5C875C9A075CAEF75CBD8D2CA22C4
:0D05B40043E9C143EAB043EBB0439B022290
:0A05C100758F077586CF759C042224
:10006A00E51F7008E5287004E51C7004E4F52B22EE
:0F007A00052BE52BD3940A4006E4F52B438702B0
:010089002254
:1005580012058F12053B30CFFDC2CF1201A7120042
:0C0568008E12003E12051912006A80EA93
:10033000020558E493A3F8E493A34003F68001F286
:1003400008DFF48029E493A3F85407240CC8C333CE
:10035000C4540F4420C8834004F456800146F6DF9D
:10036000E4800B01020408102040809005D8E47E50
:10037000019360BCA3FF543F30E509541FFEE49392
:10038000A360010ECF54C025E060A840B8E493A359
:10039000FAE493A3F8E493A3C8C582C8CAC583CA84
:1003A000F0A3C8C582C8CAC583CADFE9DEE780BE3C
:0105DB00001F
:00000001FF
