:030000000204BA3D
:0C04BA00787FE4F6D8FD7581290204511A
:100451001204881203E430CFFDC2CF12023C120015
:0C0461008E12003E12042F12006A80EA86
:10003E00E5267004D287801AC287E528B40105E44C
:10004E00F525F5280525E525D394054005E4F52588
:0B005E00F526E5277003C28622D2863B
:010069002274
:10042F00E51D146010146010146010146010240483
:10043F00700F02046D0201860202B502032C120333
:02044F009122F8
:10046D00E51FB40115E4F51FD292D280D283D2914B
:0B047D00D281D284D290D282D285229C
:10018600E51F6401701EF51FD292D280D283D291F0
:10019600D281D284D290D282D285F522F523F5205F
:1001A600F521F5240522E522C3943C400FE4F5220F
:1001B6000524E524D394084003E4F524E524B40992
:1001C6000050569001D0F82828730201EB0201F185
:1001D6000201F70201FD02020302020902020F02F6
:1001E600021502021BD285C292802ED292C2808054
:1001F60028D280C2838022D283C291801CD291C22F
:10020600818016D281C2848010D284C290800AD2A4
:1002160090C2828004D282C2850520E520C3946400
:100226004013E4F5200521E521941E4008E4F5215C
:06023600F51D751F0122F9
:1002B500E51F6401701EF51FD292D280D283D291C0
:1002C500D281D284D290D282D285F522F523F5202F
:1002D500F521F5240522E522C3941E400FE4F522FD
:1002E5000524E524D394024003E4F524E5241460B1
:1002F5000D14601024027010D284C291800AD2912C
:10030500C2818004D281C2840520E520C394644063
:1003150015E4F5200521E5219405400AE4F521F5CC
:070325001D751F01F50B22FD
:10032C00E51F6401701CF51FD292D280D283D2914A
:10033C00D281D284D290D282D285F522F523F524B3
:10034C00F51C0522E522C3943C4005E4F522052466
:10035C00E52414600F14601114601324037025D26B
:10036C0085C29022D290C28222D282C28522E4F52A
:10037C0024F51D751F01051CE51CC3940A4005E4FA
:04038C00F51CF51E49
:01039000224A
:10039100E51FB4011BE4F51FD292D280D283D29122
:1003A100D281D284D290D282D285F522F523F5244E
:1003B1000522E522C3941E400FE4F5220524E5241D
:1003C100D394024003E4F524E52414600C14600E78
:1003D1002402700ED283C29222D292C28022D28093
:0303E100C28322B2
:1004880053A87F1204D712000312049E1204AD125F
:0604980004C643A8802207
:0604D700E4F596F5952204
:10000300E4F5B175B2FF7580FF53B3F843B407430A
:10001300900743B3B043B4B053B3B743B44853901A
:10002300B753ACFE43AD0153B0FE75C7AA75C755B0
:03003300F5A32210
:0F049E00E4F5C875C9A075CAEF75CBD8D2CA22CC
:0D04AD0043E9C143EAB043EBB0439B022298
:0A04C600758F077586CF759C042220
:1003E400309505750A028003750A0120970575107A
:1003F4000180037510022094057519028003751994
:0804040001850A0E750C0122AE
:10008E00E50A605D0508E508D394024059E4F508D9
:10009E00E50AB4011D20951AE50E64016014750978
:1000AE0001750D01751E02E50C6401601C750B01D6
:1000BE008017E50AB40215309512E50E6402600C45
:1000CE00750901E4F50D751E01850A0EE509B401E9
:1000DE0009E4F509851E1D751F01E4F50CF50A806E
:1000EE0005E4F508F509E50D7028E5107003020129
:1000FE0085B40108750F01E4F51E8006E4F50F7551
:10010E001E01851E1D751F01752601752801E4F55A
:10011E001022E50B7061E5106020B40108750F0127
:10012E00E4F51E8006E4F50F751E03851E1D751F72
:10013E0001752601752801E4F510E50F640170378D
:10014E00E5196022B4010B751101751D04752701A7
:10015E008007E4F511F51DF527751F01752601754C
:10016E002801E4F51922E511B4010CE51D640460C3
:07017E0006751D04751F0149
:010185002257
:03003B0002040CB0
:10040C00C0E0309505750A028003750A01E5EC30F1
:10041C00E70B209705751001800375100275EC0031
:03042C00D0E032EB
:03008B000204D09C
:0704D000538FE7751B00329A
:10006A00E51D7008E5267004E51A7004E4F52922F6
:0F007A000529E529D3940A4006E4F529438702B6
:010089002254
:10023C00209423E4F514E513703EF51A0512E5122B
:10024C00C394C84036751902751301751B01438F91
:10025C0008E4F5158025E4F512E515701BF51A7503
:10026C0016010514E514D394024010E4F514E518B6
:10027C009432500705188003751A01E51664017055
:10028C00240517E517C394C8401EE4F517F516E5C9
:10029C001894144013E4F518E51B700C75190175CE
:0802AC001501F51322E4F5171A
:0102B4002227
:00000001FF
