:020000020000FC
:100000000C9456010C9475010C9475010C947501B7
:100010000C9475010C9475010C9475010C94750188
:100020000C9475010C9475010C9475010C94750178
:100030000C94C4130C9475010C9475010C94750107
:100040000C9475010C9475010C94DB130C947501E0
:100050000C941C140C9475010C9475010C9475018E
:100060000C9475010C9475010C9475010C94750138
:100070000C9475010C9475010C9475010C94750128
:100080000C9475010C9475010C947501720E600E40
:10009000410E340EB70E870B870B870B870B870B30
:1000A000870B930ECC0E870B0A0D870B870B870BE4
:1000B000870B870B870B870B870B870B870B870BB0
:1000C000870B870B870B870B870BAF0DAA0D9C0D3A
:1000D0008B0D870B870B870B870B870B870B870B8A
:1000E000870B870B870B870B870B870B870B870B80
:1000F000870B870B870B870B870B870B870B870B70
:10010000870B090ECA0D230ECE0C640F330F6B0F35
:100110007A0D730F870B870B870B870B870B870B6A
:10012000870B870BE90E2A0F000D570D4E0D870B1D
:10013000870B870B870B870B870B870B870B870B2F
:10014000870B3D0D230DC40C9F0CAB0B980C850C3D
:10015000870B2A0C5A0C000C4B0C140C870B870BCA
:10016000870B870B3D0CF70B870B870B870B870BD8
:10017000870B870B870B870B870B870B870B870BEF
:10018000870B870B870B870B870B870B870B870BDF
:10019000870B870B870B870B870B870B870B870BCF
:1001A000870B870B870B870B870B870B870B870BBF
:1001B000870B870B870B870B870B870B870B870BAF
:1001C000870B870B870B870B870B870B870B870B9F
:1001D000870B870B870B870B870B870B870B870B8F
:1001E000870B870B870B870B870B870B870B870B7F
:1001F000870B870B870B870B870B870B870B870B6F
:10020000870B870B870B870B870B870B870B870B5E
:10021000870B870B870B870B870B870B870B870B4E
:10022000870B870B870B870B870B870B870B870B3E
:10023000870B870B870B870B870B870B870B870B2E
:10024000870B870B870B870B870B870B870B870B1E
:10025000870B870B870B870B870B870B870B870B0E
:10026000870B870B870B870B870B870B870B870BFE
:10027000870B870B870B870BEF0BAB0BDD0BCC0BC7
:10028000BC0B5A574156455F50524F4752414D4D56
:1002900045525F56455253494F4E5F5656495F345B
:1002A00035323340373734303D01230011241FBE2F
:1002B000CFEFD0E1DEBFCDBF14E0A0E0B1E0EAE4D3
:1002C000F9E300E00BBF02C007900D92A43AB1071A
:1002D000D9F71FE0A4EAB4E001C01D92AB3BB1071F
:1002E000E1F70E94E20A0C94A31C0C9400009C010C
:1002F00088369105F8F440E050E0CA01B901660F74
:10030000771F881F991F660F771F881F991F660F19
:10031000771F881F991F621B730B840B950B23E0BB
:1003200030E040E050E00E944B1C222399F12A95D6
:10033000F1F7089568E670E00E94151C662331F01D
:1003400090E0892F8A95F1F76150D9F7C90168E6E5
:1003500070E00E94151C9C0140E050E0CA01B90108
:10036000660F771F881F991F660F771F881F991FB9
:10037000660F771F881F991F621B730B840B950BE9
:1003800023E030E040E050E00E94291C222311F0DD
:100390002A95F1F70895FF920F931F9380E090E163
:1003A0000E94770100E013E0F12E0DC00F5F8F2D4A
:1003B0008A95F1F7949A0000949800008F2D8A9501
:1003C000F1F7003279F08CEA0E94841B83E50E94E9
:1003D000841B8AEA0E94841B182F85E50E94841BD7
:1003E000133521F7802F1F910F91FF900895982FBB
:1003F00082508430C0F0913011F08FEF0895979AB9
:1004000090919D04992309F4C49A83E08A95F1F7A9
:10041000992309F4C4980000992309F4C49A979881
:100420000E94CB010895979880919D04882371F0D4
:100430008FE99FE03BE7232F2A95F1F701972FEFF4
:100440008F3F9207C1F70E94CB010895C49AC498C8
:10045000EFCFA0E0B0E0EFE2F2E00C946B1C762E60
:10046000F42E480140FF64C0C0E0D0E000E010E09E
:100470002DC084E00030180718F5F401E00FF11FDB
:100480008081D81609F06CC00F5F1F4FE4E0003088
:100490001E07B1F0F401E00FF11F8081C81609F0CA
:1004A0005FC00F5F1F4FF4E000301F0749F0F401F9
:1004B000E00FF11F8081981709F052C00F5F1F4FA6
:1004C000219681E0C635D80709F451C0872D0E94D6
:1004D000841BC5010E94770180E00E94841BD82EF6
:1004E00080E00E94841BC82E80E00E94841B982F0D
:1004F000EE2009F0BECF84E00030180708F7F401C1
:10050000E00FF11FD0820F5F1F4FE4E000301E07A5
:10051000B9F2F401E00FF11FC0820F5F1F4FF4E04A
:1005200000301F0769F2F401E00FF11F9083C6CF7E
:100530004093AD040E94841B8F2D86950E94841BDE
:1005400080E00E94841BC6010E94770180E00E9427
:10055000841B982FEE2091F0F8018081981781F08C
:1005600080E0CDB7DEB7EDE00C94871C35C081E0AC
:10057000CDB7DEB7EDE00C94871C2EC0F801808368
:10058000E40104E010E010C08981D81649F78A819F
:10059000C81631F78B81981719F70D5F1F4F2396F7
:1005A000F4E003301F0719F3872D0E94841BC50157
:1005B0000E94770180E00E94841BD82E80E00E9478
:1005C000841BC82E80E00E94841B982FEE20E1F649
:1005D000D982CA828B83E1CFA5E0B0E0E2EFF2E0FE
:1005E0000C94661C8D83862E39019E2C160150E0DA
:1005F000249F2001259F500C349F500C11245A82B7
:1006000049820E94841B8A810E94841B89810E94E6
:10061000841BC6010E94770180E00E94841B982FF2
:10062000EE2051F0F8018081981741F080E0259686
:10063000E2E10C94821CB0C0F8018083C3010197F1
:1006400063E070E00E94151C6301C81AD90A81E0BA
:1006500090E09A8389838C159D05C8F5882D0E94AA
:10066000841BC5010E94770180E00E94841BF82E44
:1006700080E00E94841BE82E80E00E94841B482FAB
:10068000992009F475C029813A81F801E20FF31F1E
:100690008081F81659F62F5F3F4F3A832983F8017E
:1006A000E20FF31F8081E81609F62F5F3F4F3A8370
:1006B0002983F801E20FF31F8081481709F0B6CFB4
:1006C000C90101969A8389838C159D0538F2861598
:1006D000970508F047C0480E591E5C824B8293E094
:1006E000A92EB12CAC0EBD1E84E0E82EF12CEC0E30
:1006F000FD1E16C029813A81F801E20FF31F8081A7
:10070000481709F093CFC90101969A8389832B81F9
:100710003C818615970530F52F5F3F4F3C832B8337
:100720008D810E94841BF70180810E94841BF5014A
:1007300080810E94841BC1010E94770180E00E9499
:10074000841B482F9920B1F689819A81F801E80F1E
:10075000F91F408301969A8389832B813C818615FA
:100760009705D0F281E02596E2E10C94821C14C03A
:1007700089819A81F801E80FF91FF0820196F8014A
:10078000E80FF91FE0820196F801E80FF91F408396
:1007900001969A8389835FCFA4E0B0E0E2EDF3E0B5
:1007A0000C94681C682E762E5901470150E0249F56
:1007B0002001259F500C349F500C11245A824982ED
:1007C0000E94841B8A810E94841B89810E94841B51
:1007D000F80180810E94841BC7010E947701C50136
:1007E000019763E070E00E94151C7501E81AF90A90
:1007F00081E090E09A838983F2E0EF16F10408F437
:100800006AC0872D0E94841B29813A81F801E20F7A
:10081000F31F80812F5F3F4F3A8329830E94841BFF
:1008200029813A81F801E20FF31F80812F5F3F4F4A
:100830003A8329830E94841B29813A81F801E20FBF
:10084000F31F80812F5F3F4F3A8329830E94841BCF
:10085000C6010E94770189819A819C018E159F05AE
:1008600080F28A159B0590F5240D351D3C832B8362
:1008700033E0E32EF12CEC0EFD1E24E0C22ED12C31
:10088000CC0EDD1E862D0E94841BF60180810E9405
:10089000841BF70180810E94841B29813A81F80121
:1008A000E20FF31F80812F5F3F4F3A8329830E941D
:1008B000841BC4010E9477018B819C8101969C83DB
:1008C0008B8389819A818A159B05E0F281E02496C9
:1008D000E0E10C94841C21E030E0C3CF1F93162F7D
:1008E00080E30E94841B812F0E94841B812F0E9421
:1008F000841B83E08A95F1F780E00E94841B1F919E
:1009000008950F931F93CF93DF93082FEB0110E00F
:10091000802F612F0E946E0489931F5F1730C1F7EB
:10092000DF91CF911F910F9108958450823010F084
:1009300081E008958FE70E94841B8EEF0E94841B44
:1009400080E00E94841B80E00E94841B0895982F01
:100950008450823018F091E0892F0895892F0E94E9
:10096000950490E0897009F091E081E09827892F43
:100970000895AF92BF92CF92DF92EF920F931F93A1
:10098000162F6A01853069F0843039F120E030E0BB
:10099000C9011F910F91EF90DF90CF90BF90AF9062
:1009A00008950E94A704882389F3123081F113303F
:1009B00061F186E060EA412F20E034E08601EE2418
:1009C000F2E0CF2ED12CE2E0AE2EB12C0E94290213
:1009D0008823E1F220E034E0DBCF0E94A7048823E3
:1009E000A9F286E060EA412F20E031E08601EE24A2
:1009F00072E0C72ED12C52E0A52EB12C0E94EC0241
:100A0000882321F220E031E0C3CF11E1D2CF10E101
:100A1000D0CFA0E0B0E0EFE0F5E00C946C1C962E97
:100A2000842EE9015801853049F08430E9F180E3F2
:100A3000CDB7DEB7ECE00C94881CB2C082E068173A
:100A400009F472C0E3E06E1709F456C060FFA5C058
:100A5000CE01019763E070E00E94151C7B016115D7
:100A60007105C9F0E50100E010E080E80E94841BF8
:100A700088810E94841B89810E94841B8A810E9434
:100A8000841B82E090E00E9477010F5F1F4F239646
:100A90000E151F0550F3882091F581E3CDB7DEB721
:100AA000ECE00C94881C7CC00E94A704882309F405
:100AB000BECF84E060E8492D20E031E092E0E92EED
:100AC000F12CB2E0CB2ED12C0E94CC03882309F468
:100AD000AECF882011F386E060EA492D20E031E0B6
:100AE000EE24E394A2E0AA2EB12C0E94EC0288230B
:100AF00009F49DCF81E3D2CFE1E19E2EA9CF86E01C
:100B000060EA492D20E034E08501EE24E39472E0B0
:100B1000C72ED12C52E0A52EB12C0E942902882389
:100B200009F485CF81E3BACFF0E19F2E18E084E08D
:100B30000E94841B812F0E94841B80E00E94841BE2
:100B4000F50180810E94841B82E090E00E94770181
:100B5000CE01019763E070E00E94151C7B016115D6
:100B6000710509F498CFE50100E010E080E80E94EB
:100B7000841B89810E94841B8A810E94841B8B8133
:100B80000E94841B82E090E00E9477010F5F1F4F5C
:100B900023960E151F0550F37ECF162F1695C7CF3F
:100BA000A0E0B0E0E6EDF5E00C94701CD82EC22E6B
:100BB000E52E4111E394EB01FF240EC084E06F2D7C
:100BC000AE010E94B9048050914091F4EA94C05063
:100BD000DF4FEE2069F0F394DD2081F784E06F2D84
:100BE0004C2D20E030E08E010E940905813371F325
:100BF00080E0EE2009F481E0CDB7DEB7E8E00C94A8
:100C00008C1C1F93182F8150833028F01430D9F09A
:100C100080E01F910895812F0E94A7048823C1F3CB
:100C200088E50E94841B80E00E94841B80E00E9473
:100C3000841B1130D9F012501230A0F080E00E94D5
:100C4000841B1F91089584E00E94A704882301F368
:100C500081EF0E94841B80E00E94841B80E00E9440
:100C6000841BECCF8CE08A95F1F7E8CF83E08A957E
:100C7000F1F7E4CF843011F080E308950E94A704D7
:100C80008823D1F380EC0E94841B80E00E94841BA7
:100C900080E00E94841B80E00E94841B8CE08A9587
:100CA000F1F784E00E94950487FFE6CF81E3089581
:100CB000843011F080E308950E94A7048823D1F3C3
:100CC00080ED0E94841B80E00E94841B80E00E94D3
:100CD000841B80E00E94841B8CE08A95F1F784E0FD
:100CE0000E94950486FFE6CF81E30895AF92BF92FC
:100CF000CF92DF92EF92FF920F931F938B0184307C
:100D000061F020E030E0C9011F910F91FF90EF905A
:100D1000DF90CF90BF90AF900895F090D60481E01F
:100D20008093D6048AE90E94841B80E00E94841B81
:100D300080E00E94841B80E00E94841B8DE090E094
:100D40000E94770187E065EB40E020E430E0EE248C
:100D5000B2E0CB2ED12CA6E0AA2EB12C0E94EC0240
:100D6000882329F0F092D60420E430E0CCCFF09232
:100D7000D604C7CF1F93982F162F8091FB0A82505D
:100D80008230A0F0953019F080E31F9108958BE038
:100D90000E94841B812F0E94841B8FEF0E94841B62
:100DA0008FEF0E94841B81E31F9108958CEA0E94BB
:100DB000841B80EC0E94841B8091FC0A0E94841B8F
:100DC00080E00E94841B81E31F9108951F93182FD8
:100DD0008CEA0E94841B8DE50E94841B80E00E94A7
:100DE000841B812F0E94841B1F9108950F93BD982F
:100DF000C59A91989498899A8C9A82E390E060E3DE
:100E000070E042E020E200E10E94FD1A82E00E94D0
:100E1000F701803230F48093E30491E0892F0F9141
:100E2000089581E00E94F7018093E30490E080320E
:100E3000A8F791E0892F0F910895A1E0B0E0E3E2D7
:100E4000F7E00C946C1CE82EB62E6A0125E08217A0
:100E500009F450C034E0831709F46AC082508983D2
:100E6000823058F0E1E0EE1609F45FC000E010E0D7
:100E7000C8012196ECE00C94881C00E011E0882465
:100E800099249CE0F92E83E0A82E1CC088E20E94E1
:100E90000E1B8B2D0E940E1BF1E0EF16F1F0882D3A
:100EA0008E7F0E940E1B2981223000F10E945B1B65
:100EB000F601E80DF91D80830894811C911C8016B1
:100EC0009106B0F680FCE2CF80E20E940E1B8B2DD3
:100ED0000E940E1BF1E0EF1611F7882D8E7F880F10
:100EE0000E940E1B8A2D8A95F1F7E0CF8F2D8A95EF
:100EF000F1F7DCCF85E00E94A704882309F4B6CF80
:100F000080E160EA4B2D20E034E08601EE24F2E03F
:100F1000CF2ED12CE2E0AE2EB12C0E9429028823E4
:100F200009F4A4CF00E014E0A3CF00E810E0A7CFBD
:100F300084E00E94A704882309F498CF80E160EA46
:100F40004B2D20E031E08601EE2472E0C72ED12C3B
:100F500052E0A52EB12C0E94EC02882309F486CF22
:100F600000E011E085CFA3E0B0E0E9EBF7E00C94FE
:100F70006C1CE82E962E842E560145E0841709F449
:100F800052C0F4E08F1709F4AEC182508B838230D7
:100F900008F4D7C0E1E0EE1609F4A1C1CC24DD24A9
:100FA0008CE40E940E1B892D0E940E1B80E00E9483
:100FB0000E1B80E00E940E1B8FE990E03BE7232F81
:100FC0002A95F1F701974FEF8F3F9407C1F78820DB
:100FD00031F481E32396ECE00C94881CBCC28E2D86
:100FE000692D43EE56E00E941D07C114D10489F318
:100FF0009091E306F5018081981709F0D9C020E0AF
:1010000030E00BC0F901ED51F94FD501A20FB31F2C
:1010100090818C91981709F0CBC02F5F3F4F2C1512
:101020003D0580F3D6CF462F50E060FDBAC06093F7
:10103000AE043093B3042093B2043093B7042093EA
:10104000B6041093B5040093B4041092B1040217CF
:1010500013070CF4BECFE4E020303E070CF0B9CF0C
:1010600084E00E94841B8091B3040E94841B8091C1
:10107000B2040E94841BE091B204F091B304EC0D21
:10108000FD1D80810E94841B82E090E00E94770118
:10109000A091B204B091B30411969D01B093B30432
:1010A000A093B2044091B4045091B5044A175B0771
:1010B0000CF48FC1F4E0A030BF079CF18AC180E836
:1010C0000E94841B8091AF040E94841B8091B00415
:1010D0000E94841BE091B204F091B304EA0DFB1D61
:1010E00080810E94841B82E090E00E947701109230
:1010F000B1042091B2043091B3044091B4045091F2
:10110000B5042F5F3F4FD9013093B3042093B2044D
:10111000421753070CF45DC184E0203038070CF00F
:1011200058C19091B104923050F6E92FF0E0E155AA
:10113000FB4FAA0DBB1D8C9180839F5F9093B104E0
:10114000E0CFC12CB1E0DB2E00E010E019C088E454
:101150000E940E1B80E00E940E1BF1E0EF16D9F0FA
:101160002B81223008F4B6C0F501E00FF11F808119
:101170000E940E1B0F5F1F4F0C151D0508F010CFAE
:1011800000FDE5CF80E40E940E1B80E00E940E1B54
:10119000F1E0EF1629F7802F8E7F880F0E940E1B3B
:1011A000E3CF8091AE0490E001964817590731F0E3
:1011B00080E32396ECE00C94881CCDC18091B404AC
:1011C0009091B504F4E080309F070CF402CF209199
:1011D000B2043091B304205034403093B3042093D0
:1011E000B204805094409093B5048093B4048091ED
:1011F000B6049091B704805094403CF184E00E9482
:10120000841B8091B2049091B30480509C4F892F2D
:101210000E94841B8091B2040E94841BE091B2045E
:10122000F091B304EC0DFD1D80810E94841B82E0CF
:1012300090E00E9477012091B2043091B3042F5FB7
:101240003F4F3093B3042093B2044091B4045091C3
:10125000B504421753076CF520C180E80E94841B37
:101260008091AF040E94841B8091B0040E94841B73
:10127000E091B204F091B304EA0DFB1D80810E945D
:10128000841B82E090E00E9477011092B1042091CB
:10129000B2043091B3044091B4045091B5042F5F6F
:1012A0003F4F3093B3042093B204421753070CF41A
:1012B000F4C09091B104923080F6E92FF0E0E1554E
:1012C000FB4FD501A20FB31F8C9180839F5F90933A
:1012D000B104E5CF802F8E7F0E940E1B45CFA0E882
:1012E000CA2ED12C31CF84E00E94A704882309F4B0
:1012F0005FCF84E060E041E020E030E086010E94C2
:101300000905813309F054CF84E00E94A7048823A3
:1013100009F44ECF979A80E20E94841B19829A8228
:10132000892D0E94841B89810E94841B80E00E9479
:10133000841B00E010E084E790E00E9477010F5FDB
:101340001F4F21E000301207B1F7E12C68E3F62EC1
:1013500062E0062F112D10C084FD15C08AE090E0D8
:101360000E947701E114F1040105110561F0089470
:10137000E108F1080109110984E00E949504C82ED2
:10138000DD2483FDE9CF979848E1C422DD24C11410
:10139000D10409F00DCF882009F41BCE84E00E940F
:1013A000A704882309F404CF80E160EA492D20E0F6
:1013B00031E08501EE24E39452E0C52ED12C92E079
:1013C000A92EB12C0E94EC02882309F002CE80E302
:1013D000F0CE405054400CF0FCCD80E20E94841BC3
:1013E000E92CE6948E2D0E94841B8FEF0E94841BB3
:1013F0008FEF0E94841B80E090E30E947701209190
:10140000B104222309F445C0FF240F2D10E001553B
:101410001B4FF80180818F3F79F184E00E94841B8B
:101420002091B1048091B2049091B304821B910980
:10143000892F0E94841B8091B2049091B104891B72
:101440000E94841BF80180810E94841B82E090E04E
:101450000E94770180E20E94841B8E2D0E94841BD3
:101460008FEF0E94841B8FEF0E94841B80E090E32B
:101470000E9477012091B1048091B2049091B3044D
:1014800001969093B3048093B204F394F21608F497
:10149000BCCF1092B10481E39DCD80E20E94841BF9
:1014A000E92CE6948E2D0E94841B8FEF0E94841BF2
:1014B0008FEF0E94841B80E090E30E9477012091CF
:1014C000B104222331F3FF240F2D10E001551B4FEF
:1014D000F80180818F3F89F184E00E94841B809114
:1014E000B2049091B30480509C4F2091B104821BB0
:1014F0009109892F0E94841B8091B2049091B104BC
:10150000891B0E94841BF80180810E94841B82E059
:1015100090E00E94770180E20E94841B8E2D0E9441
:10152000841B8FEF0E94841B8FEF0E94841B80E03E
:1015300090E30E9477012091B1048091B2049091D0
:10154000B30401969093B3048093B204F394F2161B
:1015500008F4BACF9ECF982FDB019A0141155105AF
:1015600011F4ACEBB4E08091A7048F5F8093A704E3
:10157000FD01E20FF31F80832F5F3F4F892F60E053
:10158000AD010E944A1281E08093A504A8950895B8
:10159000982FDB019A014115510511F4ACEBB4E031
:1015A000FD01E20FF31F8091A60480832F5F3F4F60
:1015B000892F61E0AD010E944A1281E08093A50469
:1015C000A8950895A5E1B0E0E8EEFAE00C94661C59
:1015D000F89488E10FB6F89481BD11BC0FBE7894E1
:1015E000BC9A97988F9A30919D04332309F4C4983C
:1015F00083E190E04BE7242F2A95F1F701972FEF35
:101600008F3F9207C1F7332309F4C49A84B78068E7
:1016100084BF84BF8091620080618093620080916A
:1016200061008061809361008C989498899891986A
:101630008D989598BD98C59A14981C9ABC98C49A90
:101640001A9AA09AA19AA29AA39AB99AC19AA89A08
:10165000A99AAA9AAB9AD098D898D198D998D298A2
:10166000DA98D398DB98D498DC98D598DD980E94C6
:1016700041121092A5041092A6041092A704129889
:101680001A9A1092A8041092A9042FE088E190E021
:101690000FB6F894A89581BD0FBE21BDA89890E023
:1016A00088248394A8950A9927C08091A804882348
:1016B00011F48092A9048092A804913009F191302C
:1016C00050F5A89581E00E94C012813009F42BC426
:1016D000882369F48091AA04873209F437C48432DC
:1016E00009F43BC48091A904882309F021C4909196
:1016F000A504A8950A9BD9CF1092A8049130F9F6B9
:1017000080E00E94C012882391F31092AC041092E2
:10171000A50490E0C7CF923029F67090F70A6624AE
:10172000E091F80AF0E0E629F729EA50F54FE08168
:101730008091A604E81759F3E093A604C19A80911A
:10174000FA0A90E0FC013597EB3FF10500F7EA5B00
:10175000FF4F0C949D1C8091FB0A0E94950480937E
:10176000E3048091FA0A63EE74E041E050E00E94E5
:10177000C80A9091A50496CF8FEF0E94841B8FEF2B
:101780000E94841B8FEF0E94841B8FEF0E94841B9A
:1017900031E33093E304E5CF82EF0E94841B809114
:1017A000FB0A0E94841B8091FC0A0E94841B80E03B
:1017B0000E94841B8093E304D4CF8EEF0E94841B8D
:1017C00080E00E94841B8091FB0A0E94841B809110
:1017D000FC0A0E94841B21E32093E304C2CF809182
:1017E0009D04813009F463C01092E304BACF809164
:1017F000FB0A853009F4E1C53DE03093E304B1CF45
:101800008091AB04882309F4CEC58091FB0A63EE76
:1018100074E00E947606AC018AE663EE74E00E94F2
:10182000C80A9091A5043ECF8091FB0A843009F448
:10183000A5C590E080E09093E3048093E404809158
:10184000FA0A63EE74E042E050E00E94C80A909108
:10185000A50428CF8091FB0A882309F4F5C383B738
:101860008C7C83BF1092AB048091FC0A843009F415
:1018700088C390E39093E30474CF8091FB0A845073
:10188000823028F4809162008F7E809362002DE088
:101890002093E30466CF8091AB04882339F0B090A5
:1018A000FD0A8091FB0A843009F4A0C580E380938F
:1018B000E30457CF8091AB04882309F484C50091D9
:1018C000FC0A8091FB0A843089F71091D60480923B
:1018D000D60489E30E94841B80E00E94841B80E080
:1018E0000E94841B802F0E94841B88E092E50E9446
:1018F000770184E063EE74E00E94760680349105FF
:1019000009F465C51093D604D1CF8091FB0A8450A9
:10191000823060F683EC0E94841B80E00E94841B6E
:1019200080E00E94841B80E00E94841B81E3BFCF83
:101930008091FB0A0E9458068093E30412CF8091A5
:10194000FB0A843009F0B2CF0E94A704882309F46F
:10195000ADCF979A8EEF0E94841B80E00E94841B7B
:1019600080E00E94841B80E00E94841B84E492E05B
:101970000E947701979884E065E00E946E048330AE
:1019800009F094CF81E393CF8091FB0A853009F46D
:10199000B7C40E943A068093E304E3CE80919D048D
:1019A000882309F4C49883E190E02BE72A95F1F7A6
:1019B0000197AFEF8F3F9A07C1F78091FB0A8530FF
:1019C00009F485C39091F70A998B188AE091F80A77
:1019D000F0E0A889B989EA2BFB2B37976091FC0AC4
:1019E0004091FD0A20E030E000E010E07F01BEEF12
:1019F000CB2EBAE0DB2E0E94B3078093E304B1CE76
:101A00008091FB0A882309F028C4A9981092A504A4
:101A100090E048CE1C821D8288E08E8360E070E0FA
:101A20004CEF5AE024E030E00E94F3162DE02093C2
:101A3000E30483E163EE74E041E050E00E94C80AF1
:101A40009091A5042FCEB091F70ABB8B1A8A2091F2
:101A5000F80A30E08A899B89282B392B275030409F
:101A60008091FB0A6091FC0A4091FD0A0EEF1AE09A
:101A70000E9409058093E30474CE8091FB0A609173
:101A8000FC0A43EE54E00E94B904AC0180E663EE28
:101A900074E00E94C80A9091A50404CE1091FC0A3B
:101AA0008091FB0A853009F4C6C380E000CF109115
:101AB000FC0A0091FD0A8091FB0A853009F0F6CE00
:101AC000193008F0F3CE0E94A704882309F4EECE63
:101AD00080EF0E94841B812F0E94841B8FEF0E9445
:101AE000841B802F0E94841B86E090E00E94770177
:101AF00081E3DDCE8091FB0A63EE74E00E948104F5
:101B00008091FA0A63EE74E047E050E00E94C80A50
:101B10009091A504C7CD9DE09093E3048091FA0ACB
:101B200063EE74E041E050E00E94C80A87E28093CF
:101B3000AA049091A504B6CD8092E30483E2809339
:101B4000E4048091FA0A63EE74E042E050E00E94FF
:101B5000C80ACDCD80EF8093E30482E0F0CF1092ED
:101B6000DE041092DF041092E0041092E10410925F
:101B7000E2048DE08093E4048091FA0A63EE74E05D
:101B800041E050E00E94C80A84E28093AA04909148
:101B9000A50488CD1091FB0A9091FC0A153009F438
:101BA00092C3812F8150833008F080CE892F0E940C
:101BB000E6068CEA0E940E1B80E80E940E1B80E065
:101BC0000E940E1B80E00E940E1B812F82508230EB
:101BD00008F493C380E090E0113009F48BC3880FC0
:101BE000991F880F991F9C01220F331F220F331F4B
:101BF000280F391F2115310509F4C4CEC9010197F9
:101C00002BE72A95F1F70197BFEF8F3F9B07C1F7AD
:101C1000B9CE10929D04BC9AC49A0E94F6068823FD
:101C200009F07EC38091FA0A63EE74E041E050E06F
:101C30000E94C80A80919D04882309F058CDC49859
:101C40009091A5042FCD8091FB0A6091FC0A43EE90
:101C500054E00E941D07AC0182E463EE74E00E9430
:101C6000C80A9091A5041ECD1C827091FB0A7D8349
:101C70008091FC0A8E8360E00E9459188093E304EF
:101C800070CD1092E3048092E404B2E0B093E504D6
:101C900083E08093E6041C821D8288E08E8360E0EE
:101CA00070E043EE54E024E030E00E940C18809194
:101CB000FA0A63EE74E044E050E00E94C80A17CDCF
:101CC0001092E3048092E40483E28093E50480911F
:101CD000FA0A63EE74E043E050E00E94C80A909173
:101CE000A504E0CC6091FB0A69837091FC0A7A83B9
:101CF0008091FD0A8B83372E22245090FE0A4424C3
:101D00002091FF0A30E024293529482F50E042294C
:101D10005329241B350B4091000B0E942117ADE085
:101D2000A093E3041ECD6091FB0A6093E3047091DD
:101D3000FC0A7093E4048091FD0A8093E5046F83AC
:101D4000788789872091FE0A46EE54E030E00E94B1
:101D50000C184091FE0A50E04D5F5F4F8091FA0AE7
:101D600063EE74E00E94C80A9091A5049BCC409158
:101D7000FE0A6091FB0A6C837091FC0A7D8380915E
:101D8000FD0A8E830E94F5176C817D818E810E94F1
:101D900059188093E304E5CC6091FB0A6983709144
:101DA000FC0A7A838091FD0A8B832091FE0A4FEF13
:101DB0005AE030E00E94F3163DE03093E30481E105
:101DC00063EE74E041E050E00E94C80A9091A504DF
:101DD00069CC1092B8041092B9041092BA0410920F
:101DE000BB048091FB0A882309F4A2C1C59A91988B
:101DF0009498BD9A899A8C9ABC9A80919D04882364
:101E000009F4C4988AEF81BF12BE9AE793BF80910C
:101E1000FC0A813030F0843008F441C2863008F486
:101E20002FC21092B8041092B9041092BA04109202
:101E3000BB048091B8048093E3048091B90480933B
:101E4000E4048091BA048093E5048091BB048093FC
:101E5000E6042DCF8091FB0A6091FC0A0E94BA062D
:101E60008093E3047ECC1091FB0A0091FC0A812F41
:101E70008150833008F4B0C1143009F017CD84E0EC
:101E80000E94A704882309F411CD979A80EF0E943D
:101E9000841B802F0E94841B80E00E94841B80E0B2
:101EA0000E94841B84E492E00E947701979884E06A
:101EB0000E94010690E083709070202F30E082171E
:101EC000930709F0F3CC5ECD8091FB0A0E940106D6
:101ED0008093E30446CC8091FB0A0E94E606BDE0B5
:101EE000B093E3043ECC80919D04882389F48998C3
:101EF00091988C9894988D9895988091FB0A84304D
:101F000008F063C1823008F036C1813009F424C181
:101F100080929D04BC98C49883B78C7C83BFBDE03D
:101F2000B093E3041ECC32E03093A50492E0BACB28
:101F30008093E30487E663EE74E041E050E00E94A2
:101F4000AB0A1092A9049091A504ACCB1092AA04FC
:101F5000F894E0E0F0EF0995C5CB8C9894988998B7
:101F600091988D98959ABD98C59A14981C9A28E0D6
:101F700088E190E00FB6F894A89581BD0FBE21BD11
:101F8000FFCF0E94F606882309F473CC84E00E94F8
:101F900095048093A40481E065EF78E040E054E08C
:101FA00020E00E94D00580E060E071E04DE853E061
:101FB00021E00E94D005882309F45BCC84E00E94D4
:101FC0003A06813309F055CC30919D04332309F44E
:101FD000C498BC9A97988F9A899891988C9894985D
:101FE0008D989598332309F4C498BC9A87EC90E0B7
:101FF0002BE72A95F1F70197AFEF8F3F9A07C1F7CB
:10200000332309F4C49A87EC90E02BE72A95F1F783
:102010000197BFEF8F3F9B07C1F791989498899ADA
:102020008C9A8D98959882E390E060E370E042E0AE
:1020300020E200E10E94FD1A8AEA90E00E94770106
:102040008092AB0491E316CC8091AB04882321F0FD
:102050008091FC0A843089F091E380919D0488236B
:1020600009F4C498BC9A97988F9A1092AB04BD98C3
:10207000C59A83B78C7C83BFFDCB80919D04882358
:1020800009F4C498BC9A97988F9A0E94F606882300
:1020900011F490E3E2CF80E065EF78E040E054E0B7
:1020A00021E00E94D0058823A1F38091A40487FD3C
:1020B00008C086FFEECF84E00E945806813349F7BE
:1020C000CBCF84E00E943A06813319F7C5CFB09197
:1020D000FE0ABB871A862091FF0A30E08A859B851D
:1020E000282B392B9091000B9D871C860091010BAA
:1020F00010E0AC85BD850A2B1B2BB091F70ABF877A
:102100001E86E091F80AF0E08E859F85E82BF92B7A
:102110003B9785E06091FC0A4091FD0A7F0192E0C7
:10212000C92E9BE0D92E0E94B3078093E30419CBFC
:10213000BD98C59A83B78C7C83BF97988F9A80E0AF
:1021400090E0A1E0B0E08093B8049093B904A0932C
:10215000BA04B093BB046DCE979AC49887EC90E014
:102160002BE72A95F1F701972FEF8F3F9207C1F7E1
:10217000C49A9798CDCE97988F9AC49A83E190E0AD
:102180002BE72A95F1F701973FEF8F3F9307C1F7B0
:1021900080E991E00E94770180919D04882309F4F1
:1021A000C49883E190E02BE72A95F1F70197AFEF10
:1021B0008F3F9A07C1F780E991E00E9477018091F3
:1021C0009D04882309F0A4CE05C0843009F0A0CE78
:1021D00097988F9AC49A9CCE812F0E94A704882337
:1021E00009F464CB0F718CEA0E94841B80EE0E947C
:1021F000841B80E00E94841B802F0E94841B11306E
:10220000A9F0812F8250823020F48EE390E00E946A
:102210007701812F0E94010690E08F719070202F2E
:1022200030E08217930709F041CBACCB86E990E010
:102230000E947701EECF0E94A704882309F435CCD1
:1022400081EF0E94841B812F0E94841B8FEF0E94CC
:10225000841B80E00E94841B2ACB823041F08130B5
:1022600009F055CAAB981092A50490E01BCA809162
:10227000FC0A882319F1AA981092A50490E012CACA
:1022800080E068E370E040E20E949A186093B8042E
:102290007093B9048093BA049093BB04CACD81E0D3
:1022A00068E370E040E20E949A186093B80470936B
:1022B000B9048093BA049093BB04BBCDAA9A109240
:1022C000A50490E0EFC98AE00E940E1B80E00E9406
:1022D0000E1B80E00E940E1B80E00E940E1B87EE0A
:1022E00093E02BE72A95F1F70197AFEF8F3F9A071D
:1022F000C1F748CB8FE097E283CC88EE93E06CCCBB
:1023000080EC0E94841B80E00E94841B80E00E947D
:10231000841B80E00E94841B91E39093E30421CA14
:1023200080E064EE74E00E9481048091E8048F31C3
:1023300009F078CC8091E904843009F073CC85E011
:102340000E949504883009F06DCC80919D0488230B
:1023500009F4C49A80929D0485E00E94F70180E010
:1023600064EE74E00E94810485E00E949504883048
:1023700009F058CC80E28093E30454CC8EE70E94AD
:10238000841B80E00E94841B80E00E94841B182F25
:1023900080E00E94841B1D8B1C8A90E0AC89BD8963
:1023A0008A2B9B2B48CA8AE660E070E040E050E050
:1023B0000E94C80A9091A50475C98091620080614D
:1023C0008093620019CA30E33093E304CAC9E3EE94
:1023D000F4E08081081709F04DC0319625E0E33222
:1023E000F207B9F71093D60481E361CA9090D6043E
:1023F0008092D6048DE466E540E020E430E00EEF04
:102400001AE0A2E0EA2EF12CF6E0CF2ED12C0E94A9
:10241000CC03882319F49092D60448CA8EE20E9415
:10242000841B80E00E94841B80E00E94841B80E06B
:102430000E94841B80E29EE40E947701BB2019F475
:102440009092D6049FCA87E065EB40E020E430E03C
:102450000EEF1AE0EE24E394E2E0CE2ED12C76E0EB
:10246000A72EB12C0E94EC02882351F79092D6043B
:1024700080E31DCA1093D60480E319CA0E94681431
:10248000089510920A0F1092090F1092F60A0E94F6
:1024900002150895FF920F931F93CF93DF93411579
:1024A000510561F05093C3044093C2043093C004BB
:1024B0002093BF048093C5046093C40481E00E940C
:1024C00097148091BF049091C0040496892F0E94B4
:1024D00097148091BF048C5F0E9497140091BF04F1
:1024E0001091C0040C5F1F4FF12EF0940450104067
:1024F0000C5F0093C1048091C4040E949714109152
:10250000C4048091C5040E9497148091C5041827C3
:1025100010271F25A091C204B091C304109709F1A0
:102520008091BF049091C004892BD9F0C0E0D0E025
:1025300008C021968091BF049091C004C817D907A4
:1025400080F4AC0FBD1F8C910E949714A091C2041F
:10255000B091C304FD01EC0FFD1F80811827109777
:1025600041F7812F0E9497140E94D11480910B0F84
:10257000886080930B0FCDB7DEB7E5E00C948F1C1D
:102580000F931F93182F0E946814882391F5809150
:102590000B0F81FD04C080910B0F83FF65C0F89481
:1025A0000E94D81478948436910508F44AC0109299
:1025B000F60A80910B0F846080930B0F80910B0FB4
:1025C00081FD59C015E00E94D11480910B0F877FC7
:1025D00080930B0F90910B0F96959695927080912A
:1025E0000B0F8D7F892B80930B0F812F1F910F91E4
:1025F00008950E946D14082F8091F60A853030F5F9
:102600008330D8F18F5F8093F60A0E94D114209115
:10261000090F30910A0FF901E950F54F00832F5F40
:102620003F4F30930A0F2093090F8091F50A8027BE
:102630008093F50A8091BD049091BE042817390754
:1026400090F510E0812F1F910F9108958530E9F2E8
:10265000863009F456C010E01092F60A80910B0FF4
:102660008D7F80930B0FEECF0E94D11410E0812F4D
:102670001F910F91089514E0A6CF813009F44CC04A
:102680008230C0F4013009F46DC080910B0F83FFDC
:1026900067C0063009F064C080910B0F877F80937C
:1026A0000B0F12E0CFCF8091F60A8F5F8093F60A6E
:1026B00010E0C8CF0E94D1148091F60A8F5F8093FA
:1026C000F60A8091090F90910A0FFC01E950F54F2D
:1026D0000083019690930A0F8093090F202F30E01A
:1026E0008091BD049091BE04822B932B9093BE04E5
:1026F0008093BD048091F50A80278093F50A10E04D
:10270000A1CF112359F18091F50A081721F185E134
:102710000E94971413E0A0CF0E94D1148091F60A72
:102720008F5F8093F60A8091090F90910A0FFC0148
:10273000E950F54F0083019690930A0F8093090F9B
:102740001092BD040093BE048091F50A8027809307
:10275000F50A10E077CF86E00E94971411E07CCF55
:1027600016E070CF0093F60A8FEF8093F50A10926F
:102770000A0F1092090F80910B0F826080930B0F4C
:102780000E94D11410E05ECF1F920F920FB60F92ED
:1027900011248F939F938091C6049091C704019652
:1027A0009093C7048093C6049F918F910F900FBEA2
:1027B0000F901F9018951F920F920FB60F920BB6A5
:1027C0000F9211242F938F939F93EF93FF938091F8
:1027D000300F9091310F809768F58091B40F9091F0
:1027E000B50F2CB1FC01E25FF04F2083019690936E
:1027F000B50F8093B40F8091B40F9091B50F80976F
:1028000020F01092B50F1092B40F8091300F90917C
:10281000310F01969093310F8093300FFF91EF911C
:102820009F918F912F910F900BBE0F900FBE0F9025
:102830001F9018958CB1F2CF1F920F920FB60F9286
:102840000BB60F9211242F938F939F93EF93FF93C7
:102850008091320F9091330F892BA1F18091B60FA7
:102860009091B70FFC01EC5CF04F20812CB90196E0
:102870009093B70F8093B60F8091320F9091330FE2
:1028800001979093330F8093320F8091B60F909100
:10289000B70F8038910520F01092B70F1092B60F45
:1028A000F8941092C7041092C6047894FF91EF91A7
:1028B0009F918F912F910F900BBE0F900FBE0F9095
:1028C0001F90189580910B0F8E7F80930B0FE8CF90
:1028D0008091300F9091310F089580910C0F90915D
:1028E0000D0FFC01E25FF04FE081019690930D0F18
:1028F00080930C0F8091300F9091310F892B59F0FC
:10290000F8948091300F9091310F01979093310F8F
:102910008093300F789480910C0F90910D0F8097D9
:1029200020F010920D0F10920C0F8E2F0895282F6B
:102930008091320F9091330F80389105C8F78091C4
:102940000B0F80FF24C080912E0F90912F0FFC0160
:10295000EC5CF04F2083019690932F0F80932E0F05
:10296000F8948091320F9091330F01969093330F2A
:102970008093320F789480912E0F90912F0F803892
:10298000910520F010922F0F10922E0F08955D9B4D
:10299000FECF5E9A2CB980910B0F816080930B0F54
:1029A000EACFF8941092C7041092C6047894089560
:1029B0002091C6043091C704C9010895282F80E0F2
:1029C00092E10E94151CCB010197222361F4109221
:1029D000900089B98AB188618AB980919500866032
:1029E00080939500089510929800809399008091AB
:1029F0009A00886180939A0080919D008660809300
:102A00009D000895F89480E094E29BBD8ABD1DBCB2
:102A10001CBC8AE08EBD87B7806187BF1092C70457
:102A20001092C60480E060E874E00E94DE148AB16F
:102A3000806C8AB98BB18F738BB91092330F10925F
:102A4000320F8091320F9091330F9093310F80931A
:102A5000300F8091300F9091310F9093B70F80938A
:102A6000B60F8091B60F9091B70F90932F0F809370
:102A70002E0F80912E0F90912F0F90930D0F80931A
:102A80000C0F80910C0F90910D0F9093B50F8093C8
:102A9000B40F10920B0F78940895FC01808190E0A0
:102AA00002C0959587956A95E2F781700895FC01BB
:102AB000DB0121E030E002C0220F331F4A95E2F72C
:102AC000808190E082239323892BD1F38C91089508
:102AD000FC01808190E002C0959587956A95E2F7A8
:102AE0008095817008950F931F93182FFB01DA01D1
:102AF000422F21E030E002C0220F331F0A95E2F797
:102B0000808190E082239323892BD1F3208181E07F
:102B100090E002C0880F991F4A95E2F7282B208386
:102B20001C931F910F9108958091D50408951092E0
:102B3000D50408951F938091D404882311F41F9124
:102B40000895E091B80FF091B90F90818091BA0F7C
:102B500080958923808319E1812F8A95F1F78091EF
:102B6000D2040E940E1B0E945B1B282F812F8A9586
:102B7000F1F7E091B80FF091B90F80819091BA0F01
:102B8000892B80831A95F1F78091D204853031F03A
:102B900027FD06C08091D4041F91089520FDFACF2F
:102BA0001092D40480E01F910895A0E0B0E0EBED16
:102BB000F5E10C946E1C5B016C017A01E9010E9445
:102BC0009A158823E1F781E08093D404E091B80F4F
:102BD000F091B90F90818091BA0F809589238083FD
:102BE00019E1812F8A95F1F786E00E940E1B812F53
:102BF0008A95F1F7E091B80FF091B90F808190912B
:102C0000BA0F892B8083812F8A95F1F7E091B80F55
:102C1000F091B90F90818091BA0F809589238083BC
:102C20001A95F1F78091D0040E940E1B8091CF0479
:102C3000823029F0C601AA27BB270E940E1BBB27A2
:102C4000AD2D9C2D8B2D0E940E1B8A2D0E940E1BDC
:102C5000209761F0E114F10409F447C0F701819174
:102C60007F010E940E1B21972097A1F729E1822F57
:102C70008A95F1F7E091B80FF091B90F80819091AA
:102C8000BA0F892B80832A95F1F78091D30488238A
:102C900021F10E949A158823E1F7E091B80FF09195
:102CA000B90F90818091BA0F80958923808319E1B3
:102CB000812F8A95F1F78091D3040E940E1B812FFA
:102CC0008A95F1F7E091B80FF091B90F808190915A
:102CD000BA0F892B80831A95F1F781E08093D50490
:102CE000CDB7DEB7EAE00C948A1C802F0E940E1B41
:102CF0002197BACFA3E0B0E0E0E8F6E10C94681CBD
:102D0000862E6983C72E7A838B832A013901102F7F
:102D10009924AA24BB24540199248824DD24EE2478
:102D2000FF24FE2CED2CDC2CCC248C0C9D1CAE1C2A
:102D3000BF1C880E911CA11CB11C2091CD043091A8
:102D4000CE0421503040C901882199212F5F3F4F87
:102D50000097E1F07901E81AF90A6E147F04F0F1A6
:102D6000C501B401A2019701012F0E94D51541149C
:102D70005104B1F197016E187F08C701A0E0B0E0DF
:102D8000880E991EAA1EBB1E420E531E61147104AA
:102D900009F18091CD049091CE04730186159705B9
:102DA00008F47C01C501B401A2019701012F0E9422
:102DB000D5156E187F08C701A0E0B0E0880E991EF7
:102DC000AA1EBB1E4114510409F34E0C5F1C611472
:102DD0007104F9F62396E0E10C94841C7301C0CFD2
:102DE00020E030E0C8CFCF92DF92EF92FF920F93B6
:102DF000DF93CF9300D00F92CDB7DEB769837A838C
:102E00008B836A01790180919E04823099F06981F7
:102E10007A818B81A601970100E00E947A160F90BB
:102E20000F900F90CF91DF910F91FF90EF90DF9077
:102E3000CF9008958B8140E050E00FEF0E947A160A
:102E4000E6CF0F93DF93CF9300D00F92CDB7DEB7CD
:102E500069837A838B83042F40E050E00E947A16C6
:102E60000F900F900F90CF91DF910F9108950F93D6
:102E70001F93082F0E949A158823E1F781E0809321
:102E8000D404E091B80FF091B90F90818091BA0FFE
:102E900080958923808319E1812F8A95F1F786E057
:102EA0000E940E1B812F8A95F1F7E091B80FF091E7
:102EB000B90F80819091BA0F892B8083812F8A95D9
:102EC000F1F7E091B80FF091B90F90818091BA0FAE
:102ED000809589238083812F8A95F1F781E80E946C
:102EE0000E1B80E00E940E1B802F0E940E1B80E0B4
:102EF0000E940E1B812F8A95F1F7E091B80FF09197
:102F0000B90F80819091BA0F892B80831A95F1F7C0
:102F10001F910F910895A3E0B0E0E1E9F7E10C946F
:102F2000711C69837A838B83E42ED62E072FF82EAB
:102F30000E949A158823E1F781E08093D404E09100
:102F4000B80FF091B90F90818091BA0F80958923C5
:102F5000808319E1812F8A95F1F786E00E940E1B8C
:102F6000812F8A95F1F7E091B80FF091B90F808128
:102F70009091BA0F892B8083812F8A95F1F7E09188
:102F8000B80FF091B90F90818091BA0F8095892385
:102F900080831A95F1F78091D0040E940E1B8091D6
:102FA000CF04823019F08D2D0E940E1B802F0E94BD
:102FB0000E1B8F2D0E940E1B8E2D0E940E1B29E1D1
:102FC000822F8A95F1F7E091B80FF091B90F8081C7
:102FD0009091BA0F892B80832A95F1F781E0809335
:102FE000D5042396E7E00C948D1CA3E0B0E0EBEF52
:102FF000F7E10C94751C69837A838B83142F4FEF50
:103000000E948B1769817A818B81412F0E948B17D7
:103010002396E3E00C94911CA3E0B0E0E2E1F8E138
:103020000C946F1C6983972F7A838B837A018901B3
:10303000B62E6C010E949A158823E1F7E091B80F33
:10304000F091B90F90818091BA0F80958923808388
:1030500089E18A95F1F783E00E940E1B8091CF04ED
:10306000823019F08B2D0E940E1B8D2D0E940E1B9D
:103070008C2D0E940E1B0115110541F00E945B1B57
:10308000F70181937F0101501040C1F729E1822FA0
:103090008A95F1F7E091B80FF091B90F8081909186
:1030A000BA0F892B80832A95F1F72396E9E00C94D7
:1030B0008B1CA3E0B0E0EFE5F8E10C94741C69838D
:1030C0007A838B83162F072F0E949A158823E1F7A6
:1030D000E091B80FF091B90F90818091BA0F80956F
:1030E0008923808389E18A95F1F783E00E940E1B92
:1030F0008091CF04823019F0812F0E940E1B802F07
:103100000E940E1B812F0E940E1B0E945B1B39E147
:10311000932F9A95F1F7E091B80FF091B90F908144
:103120002091BA0F922B90833A95F1F72396E4E021
:103130000C94901CFF920F931F93FB0120E230E050
:103140003093CE042093CD04882309F45BC182E040
:103150008093CF04F093B90FE093B80F4093BA0F68
:1031600019E1812F8A95F1F78081842B8083812F4B
:103170008A95F1F782E390E060E370E042E020E2BC
:1031800000E10E94FD1AE091B80FF091B90F908113
:103190008091BA0F809589238083812F8A95F1F7DA
:1031A0008BEA0E940E1B812F8A95F1F7E091B80FF0
:1031B000F091B90F80819091BA0F892B80831A9575
:1031C000F1F709E102C0F0FE4FC0E091B80FF091B5
:1031D000B90F90818091BA0F809589238083802FC9
:1031E0008A95F1F785E00E940E1B0E945B1BF82E6A
:1031F000802F8A95F1F7E091B80FF091B90F808197
:103200009091BA0F892B8083802F8A95F1F7E091F6
:10321000B80FF091B90F90818091BA0F80958923F2
:103220008083802F8A95F1F787ED0E940E1B0E9404
:103230005B1B182F0E945B1B282F802F8A95F1F7AC
:10324000E091B80FF091B90F80819091BA0F892B5E
:103250008083802F8A95F1F71F3F09F4B4CF2F3F69
:1032600009F4B1CF17FFAFCFE091B80FF091B90FCC
:1032700090818091BA0F80958923808319E1812FF5
:103280008A95F1F784E00E940E1B812F8A95F1F751
:10329000E091B80FF091B90F80819091BA0F892B0E
:1032A0008083812F8A95F1F7E091B80FF091B90FE3
:1032B00090818091BA0F809589238083812F8A9590
:1032C000F1F78FE90E940E1B0E945B1B8093C804DC
:1032D0000E945B1B8093C9040E945B1B8093CA04FD
:1032E000812F8A95F1F7E091B80FF091B90F8081A5
:1032F0009091BA0F892B80831A95F1F72091C80419
:103300002F3109F46DC02F3F09F4CDC092E09093A6
:10331000D00485E08093D2041092D3042F3109F4B5
:103320009EC02F3B09F472C08091C904803409F417
:10333000C8C0803809F4D6C00E949A158823E1F7E6
:1033400081E08093D404E091B80FF091B90F90819F
:103350008091BA0F80958923808319E1812F8A9506
:10336000F1F786E00E940E1B812F8A95F1F7E0911C
:10337000B80FF091B90F80819091BA0F892B80839B
:10338000812F8A95F1F7E091B80FF091B90F9081F4
:103390008091BA0F809589238083812F8A95F1F7D8
:1033A00081E00E940E1B83E00E940E1B812F8A95F4
:1033B000F1F7E091B80FF091B90F80819091BA0FB9
:1033C000892B80831A95F1F760919E047091C8044F
:1033D0008091C9049091CA041F910F91FF900895A4
:1033E0008091C904982F9F719093CC048295869503
:1033F00087708093CB04915F9093CA048068809318
:10340000C90484CF83E08093CF04A4CE8091C90403
:10341000853209F091CF8DEA8093D00480E28093C9
:10342000D10484E08093D30483E08093CF0482E0CE
:1034300090E09093CE048093CD0480E090E190934F
:10344000A00480939F0480E290E09093A204809374
:10345000A1040E949A15882309F06ECF71CF809144
:10346000CB04813009F45BC0823009F065CF81E87C
:103470008093D10483E08093CF0480E091E0909327
:10348000CE048093CD049093A00480939F0480E0A9
:1034900094E09093A2048093A1040E949A1588233B
:1034A00009F04ACF4DCF8091C9048F3F09F02ECF4C
:1034B0008091CA048F3F09F029CF81E080939E0458
:1034C00025CF9093D00483E08093CF0480E091E0F7
:1034D0009093CE048093CD040E949A15882309F01E
:1034E0002BCF2ECF8091CA04813109F47EC0823166
:1034F00009F47FC0833109F44BC08AE08093D00483
:1035000083E08093CF0480E091E09093CE04809399
:10351000CD040E949A15882309F00ECF11CFE091B7
:10352000B80FF091B90F90818091BA0F80958923DF
:10353000808319E1812F8A95F1F787ED0E940E1B98
:103540000E945B1B912F9A95F1F7E091B80FF091D3
:10355000B90F90812091BA0F922B9083912F9A9559
:10356000F1F780FF19C088E58093D00483E0809351
:10357000CF0480E091E09093CE048093CD0487ED5A
:103580008093D2040E949A15882309F0D5CED8CE14
:1035900080E48093CA04B1CFE091B80FF091B90FE5
:1035A00090818091BA0F809589238083812F8A959D
:1035B000F1F78DE30E940E1B8AE20E940E1B80E849
:1035C0000E940E1B86EA0E940E1B812F8A95F1F73E
:1035D000E091B80FF091B90F80819091BA0F892BCB
:1035E0008083812F8A95F1F7BECF80E18093CA0452
:1035F00084CF80E28093CA0480CF0F939093D80445
:103600008093D7047093DA046093D9044093DB0469
:103610002093DC040093DD040F9108950F931F9312
:10362000482F50E01091DB04012F00956091DD04DC
:10363000762F709520E030E0A0E8B0E01CC0E0916B
:10364000D704F091D8048081812B8083E091D70446
:10365000F091D8048081872380830000E091D70413
:10366000F091D8048081862B808300002F5F3F4F2C
:103670002830310599F0CD01022E02C0959587952D
:103680000A94E2F784239523892BC9F6E091D704A5
:10369000F091D804808180238083D8CFE091D70433
:1036A000F091D80480818723808389E18A95F1F79E
:1036B0001F910F9108955091DC043091DD04432F48
:1036C000409520E090E0220FE091D904F091DA04D7
:1036D0008081852309F02160E091D704F091D8041E
:1036E0008081832B80830000E091D704F091D8047F
:1036F00080818423808300009F5F983021F789E1D7
:103700008A95F1F7822F0895DF92EF92FF920F933F
:103710001F93682F70E0F090DB04DF2CD0940091B1
:10372000DC045091DD04152F109540E020E030E0DE
:10373000A0E8B0E08BE7E82E2DC0E091D704F0912F
:10374000D80480818F298083440FE091D904F091BF
:10375000DA048081802309F041608091D6048823B7
:1037600061F1E091D704F091D8048081852B8083AA
:103770008E2D8A95F1F7E091D704F091D8048081DD
:10378000812380838E2D8A95F1F72F5F3F4F28305C
:10379000310541F1CD01022E02C0959587950A941D
:1037A000E2F786239723892B41F6E091D704F09125
:1037B000D80480818D218083C7CFE091D704F09118
:1037C000D8048081852B80830000E091D704F0919C
:1037D000D80480818123808300002F5F3F4F2830F1
:1037E0003105C1F68091D604882379F090E02BE76B
:1037F000822F8A95F1F79F5F9032D1F7842F1F9126
:103800000F91FF90EF90DF90089589E18A95F1F78D
:10381000842F1F910F91FF90EF90DF900895FC018E
:1038200060936800C895802D0895AA1BBB1B51E1C9
:1038300007C0AA1FBB1FA617B70710F0A61BB70B20
:10384000881F991F5A95A9F780959095BC01CD01C5
:103850000895A1E21A2EAA1BBB1BFD010DC0AA1FD1
:10386000BB1FEE1FFF1FA217B307E407F50720F0E9
:10387000A21BB30BE40BF50B661F771F881F991F64
:103880001A9469F760957095809590959B01AC01AD
:10389000BD01CF01089597FB092E05260ED057FDD7
:1038A00004D0D7DF0AD0001C38F4509540953095ED
:1038B00021953F4F4F4F5F4F0895F6F790958095B4
:1038C000709561957F4F8F4F9F4F08952F923F9234
:1038D0004F925F926F927F928F929F92AF92BF9220
:1038E000CF92DF92EF92FF920F931F93CF93DF93CC
:1038F000CDB7DEB7CA1BDB0B0FB6F894DEBF0FBE29
:10390000CDBF09942A88398848885F846E847D8475
:103910008C849B84AA84B984C884DF80EE80FD8077
:103920000C811B81AA81B981CE0FD11D0FB6F894ED
:10393000DEBF0FBECDBFED010895EE0FFF1F059056
:10394000F491E02D0994F894FFCF0202D775FF029D
:1039500043E40453E4F975FF0253E6BF1202CA12AE
:1039600002AC7F001201328F08E508120363003DAC
:103970000700F92E011339008A4D00AD5600DF9A79
:10398000005EB5000000187F701201328F097F00C1
:103990001201328F0AAF0A12018A8F0BAF0B12018C
:1039A00032E50A04F51480BAAF14051412018A8FA7
:1039B00009AF14051412018A8F0AAF1405141201FD
:1039C0008A8F0BAF09120132AF0A120132AF0B120C
:1039D0000132808E7FD81201328F097F00120132AE
:1039E0008F0AAF0A1201328F0BAD0BAF0A1201CF53
:1039F000E50A04F51401187F671201328F09AF0937
:103A00001201328F0AAF0A1201328F0BAF14051464
:103A1000AD091201CFAF140514AD0A1201CFAF14D6
:103A20000514AD0B1201CF01187FA81201328F09C6
:103A30007F001201328F0A7F001201328F0B1202B7
:103A40000E01187FE61201328F097F001201328FBA
:103A50000A7F001201328F0B12024A01187F921264
:103A600001328F097F001201328F0A7F001201326A
:103A70008F0BAF0B12028001180118228F0C750DED
:103A800000750E08E5A030E4047F0180027F00EF9E
:103A900070F2E50C30E70543A008800353A0F7E57A
:103AA0000C25E0F50CE5A020E4047F0180027F00F6
:103AB000EF70F2E50D25E0F50DE5A030E2047F01A1
:103AC00080027F00EF6003430D01150EAF0EEF7013
:103AD000B3AF0D228F1375FF01E5C420E7047F010A
:103AE00080027F00EF602F75FF018513C575FF0110
:103AF00053C4FC75FF0153C4FB75FF0143C48075BB
:103B0000FF01E5C430E7047F0180027F00EF70EF22
:103B100075FF01AFC6227F56228F0F8D1075FF01F2
:103B2000E5C420E7047F0180027F00EF602975FF74
:103B300001850FC575FF018510C675FF0153C4FCD3
:103B400075FF0143C48475FF01E5C430E7047F01BC
:103B500080027F00EF70EF2275FF01E5C420E704CB
:103B60007F0180027F00EF602A75FF01E5C454FCED
:103B7000FFEF4402F5C475FF0153C4FB75FF014319
:103B8000C48075FF01E5C430E7047F0180027F0037
:103B9000EF70EF2275FF01E5C420E7047F0180028A
:103BA0007F00EF602475FF01E5C454FCFFEF440281
:103BB000F5C475FF0143C48475FF01E5C430E70413
:103BC0007F0180027F00EF70EF228F1175FF01E50A
:103BD000C420E7047F0180027F00EF6018751200A7
:103BE000E512C39440500BAD11AF121201CF051274
:103BF00080EE12024A2275FF0153C4DF75FF0143B4
:103C0000C40875FF01E5C430E7047F0180027F002E
:103C1000EF70EF2275FF0153CAF775FF0143CA1415
:103C200022787FE4F6D8FD75811402031E0200039A
:103C3000E493A3F8E493A34003F68001F208DFF4D1
:103C40008029E493A3F85407240CC8C333C4540F49
:103C50004420C8834004F456800146F6DFE4800B1C
:103C60000102040810204080900389E47E019360E3
:103C7000BCA3FF543F30E509541FFEE493A3600149
:103C80000ECF54C025E060A840B8E493A3FAE493B3
:103C9000A3F8E493A3C8C582C8CAC583CAF0A3C861
:103CA000C582C8CAC583CADFE9DEE780BED083D03B
:103CB00082F8E4937012740193700DA3A393F874C7
:103CC0000193F5828883E4737402936860EFA3A381
:103CD000A380DF0114000000000000000000008D40
:0E3CE0000300008D0300000102001020000010
:020000021000EC
:10F000000C945BF80C947AF80C947AF80C947AF8D7
:10F010000C947AF80C947AF80C947AF80C947AF8A8
:10F020000C947AF80C947AF80C947AF80C947AF898
:10F030000C9489FC0C947AF80C947AF80C947AF875
:10F040000C947AF80C947AF80C94A0FC0C947AF84E
:10F050000C94E1FC0C947AF80C947AF80C947AF8FD
:10F060000C947AF80C947AF80C947AF80C947AF858
:10F070000C947AF80C947AF80C947AF80C947AF848
:10F080000C947AF80C947AF80C947AF85A57415602
:10F09000455F50524F4752414D4D45525F56455284
:10F0A00053494F4E5F5656495F34353233403737F8
:10F0B00034303D01230011241FBECFEFD0E1DEBF6D
:10F0C000CDBF11E0A0E0B1E0E8E5FDEF01E00BBF4E
:10F0D00002C007900D92A030B107D9F719E0A0E067
:10F0E000B1E001C01D92AB3EB107E1F70E94CFF93C
:10F0F0000C94AAFE0C9400F8A0E0B0E0E2E8F8EF6F
:10F100000C9478FE882E5B01A9017FB6F8942091BB
:10F1100011012095809113019091120189279091FE
:10F1200014018927822790911501891739F080E30E
:10F13000CDB7DEB7EDE00C9494FE6DC0E199FECF43
:10F140004A9DC0014B9D900D5A9D900D11247C014C
:10F1500000E010E081E3C82E85E0D82EB801A701B9
:10F16000E501D601992493948C9111963C911197C5
:10F1700020E0F901E80FF11DCF010C01FA016093C5
:10F180005B0090926800E89511244E5F5F4F6F4FCF
:10F190007F4F22971296209739F785E0F701009369
:10F1A0005B0080936800E8958091680080FDFCCF4B
:10F1B00081E180936800E895882011F1B50108C0CD
:10F1C00082E090E0A0E0B0E0E80EF91E0A1F1B1FED
:10F1D000D6018C910BBFF7012791369111965C9166
:10F1E00040E0FA01E80FF11DE217F30791F46250D5
:10F1F000704082E090E0C80ED91E6115710501F7DC
:10F2000081E37FBE7894CDB7DEB7EDE00C9494FE39
:10F2100002C080E3F6CF982FDB019A01411551051A
:10F2200011F4A5E0B1E0809102018F5F80930201AB
:10F23000FD01E20FF31F80832F5F3F4F892F60E0B6
:10F24000AD010E940FFB81E0809300010895982F8B
:10F25000DB019A014115510511F4A5E0B1E0FD0172
:10F26000E20FF31F8091010180832F5F3F4F892FB1
:10F2700061E0AD010E940FFB81E0809300010895E1
:10F28000CF93DF93EC01E199FECF4C9FC0014D9FDE
:10F29000900D5C9F900D11249C0140E050E0A6E190
:10F2A000B1E060E070E04BBFF901879196918C93DB
:10F2B00011969C9311976E5F7F4F2E5F3F4F4F4F7C
:10F2C0005F4F1296C617D70771F780912D0566E13B
:10F2D00071E0AE010E9427F9DF91CF910895DF928E
:10F2E000EF92FF920F931F93E09011019E2D909546
:10F2F000F09012010091130110911401802F8F25BD
:10F3000081277091150189278717E1F080EF80939D
:10F310001601A998E0921701F092180100931901C3
:10F3200010931A0170931B0180912D0566E171E025
:10F3300046E050E00E9427F91F910F91FF90EF9057
:10F34000DF900895DFB6F89420E030E040E050E030
:10F3500080E090E0A0E0B0E063E0FC01A0935B00FF
:10F3600060936800E8958091680080FDFCCF205094
:10F370003F4F4F4F5F4FDA01C9012030E0EE3E07AB
:10F38000E1E04E07E0E05E0741F781E1809368002D
:10F39000E8958DE080931601DFBE7894BBCFA0E0A6
:10F3A000B0E0E5EDF9EF0C947BFEF89488E10FB640
:10F3B000F89481BD11BC0FBE789481E085BF82E0D6
:10F3C00085BFBC9A97988F9A84B7806884BF84BFA2
:10F3D0008091620080618093620080916100806111
:10F3E000809361008C989498899891988D989598BD
:10F3F000BD98C59A14981C9ABC98C49AA09AA19AD0
:10F40000A29AA39AB99AC19AA89AA99AAA9AAB9AC7
:10F41000D098D898D198D998D298DA98D398DB9880
:10F42000D498DC98D598DD980E9406FB10920001D4
:10F430001092010110920201AB9802E02DE0B22E71
:10F4400090EFA92E90910001913009F449C09130BC
:10F4500000F581E00E9485FB813009F44AC08823D1
:10F4600089F780910301843269F78C989498899880
:10F4700091988D98959ABD98C59A14981C9A28E0F1
:10F4800088E190E00FB6F894A89581BD0FBE21BD2C
:10F49000FFCF9230C9F6D0912A05C0E0E0912B054C
:10F4A000F0E0EC2BFD2BE75DFA4FE081809101014C
:10F4B000E81799F0E0930101C19A10912D051432DB
:10F4C00009F454C01532C0F4183109F473C019316D
:10F4D00009F462C0163109F446C010920001B2CF9F
:10F4E00080E00E9485FB882309F4ACCF10920401D0
:10F4F000F4CF00930001A6CF1732B9F0133571F0A5
:10F50000153259F7A09216019093170185E266E132
:10F5100071E042E050E00E9427F994CF80912E05DF
:10F52000882309F061C0A998D8CF80912E058093D7
:10F53000110180912F0580931201809130058093F5
:10F5400013018091310580931401809132058093DD
:10F550001501B092160187E266E171E041E050E0EA
:10F560000E9427F96FCF0E946FF96CCF10921101A2
:10F5700010921201109213011092140110921501B1
:10F58000B092170184E266E171E041E050E00E9430
:10F5900027F91093030156CFD0902E05CC2440912B
:10F5A0002F0550E04C295D2980E091E066E40E943F
:10F5B00040F948CFF0902E05EE2420912F0530E041
:10F5C0002E293F298091300560E071E046E40E94D9
:10F5D0007CF88093160180912D0566E171E041E091
:10F5E00050E00E9427F92ECF823029F0813009F0B7
:10F5F00074CFAB9872CF80912F05882311F0AA9811
:10F600006CCFAA9A6ACF0E942DFD089510923D09F1
:10F6100010923C09109229050E94C7FD0895FF929F
:10F620000F931F93CF93DF934115510561F05093D2
:10F630000C0140930B013093090120930801809342
:10F640000E0160930D0181E00E945CFD8091080134
:10F65000909109010496892F0E945CFD8091080118
:10F660008C5F0E945CFD00910801109109010C5F04
:10F670001F4FF12EF094045010400C5F00930A01CC
:10F6800080910D010E945CFD10910D0180910E0191
:10F690000E945CFD80910E01182710271F25A09164
:10F6A0000B01B0910C01109709F180910801909124
:10F6B0000901892BD9F0C0E0D0E008C021968091E3
:10F6C000080190910901C817D90780F4AC0FBD1F3C
:10F6D0008C910E945CFDA0910B01B0910C01FD0189
:10F6E000EC0FFD1F80811827109741F7812F0E9492
:10F6F0005CFD0E9496FD80913E09886080933E09E2
:10F70000CDB7DEB7E5E00C949CFE0F931F93182F46
:10F710000E942DFD882391F580913E0981FD04C052
:10F7200080913E0983FF65C0F8940E949DFD789406
:10F730008436910508F44AC01092290580913E094B
:10F74000846080933E0980913E0981FD59C015E097
:10F750000E9496FD80913E09877F80933E0990919B
:10F760003E0996959695927080913E098D7F892BE2
:10F7700080933E09812F1F910F9108950E9432FDC1
:10F78000082F80912905853030F58330D8F18F5FBF
:10F79000809329050E9496FD20913C0930913D09F6
:10F7A000F901E65DFA4F00832F5F3F4F30933D092B
:10F7B00020933C098091280580278093280580911B
:10F7C0000601909107012817390790F510E0812F65
:10F7D0001F910F9108958530E9F2863009F456C0E3
:10F7E00010E01092290580913E098D7F80933E099B
:10F7F000EECF0E9496FD10E0812F1F910F9108958A
:10F8000014E0A6CF813009F44CC08230C0F401303E
:10F8100009F46DC080913E0983FF67C0063009F08E
:10F8200064C080913E09877F80933E0912E0CFCF6C
:10F83000809129058F5F8093290510E0C8CF0E9431
:10F8400096FD809129058F5F8093290580913C0961
:10F8500090913D09FC01E65DFA4F0083019690937B
:10F860003D0980933C09202F30E080910601909162
:10F870000701822B932B90930701809306018091BF
:10F88000280580278093280510E0A1CF112359F186
:10F8900080912805081721F185E10E945CFD13E0A5
:10F8A000A0CF0E9496FD809129058F5F8093290546
:10F8B00080913C0990913D09FC01E65DFA4F00837F
:10F8C000019690933D0980933C09109206010093A4
:10F8D00007018091280580278093280510E077CFC5
:10F8E00086E00E945CFD11E07CCF16E070CF0093B3
:10F8F00029058FEF8093280510923D0910923C094D
:10F9000080913E09826080933E090E9496FD10E03E
:10F910005ECF1F920F920FB60F9211248F939F9379
:10F9200080910F01909110010196909310018093A6
:10F930000F019F918F910F900FBE0F901F90189500
:10F940001F920F920FB60F920BB60F9211242F93A6
:10F950008F939F93EF93FF93809163099091640934
:10F96000809768F58091E7099091E8092CB1FC0136
:10F97000EF5BF64F208301969093E8098093E709A7
:10F980008091E7099091E809809720F01092E809AA
:10F990001092E70980916309909164090196909310
:10F9A000640980936309FF91EF919F918F912F914B
:10F9B0000F900BBE0F900FBE0F901F9018958CB13B
:10F9C000F2CF1F920F920FB60F920BB60F92112427
:10F9D0002F938F939F93EF93FF938091650990915D
:10F9E0006609892BA1F18091E9099091EA09FC014E
:10F9F000E959F64F20812CB901969093EA0980933A
:10FA0000E9098091650990916609019790936609CB
:10FA1000809365098091E9099091EA098038910500
:10FA200020F01092EA091092E909F894109210015E
:10FA300010920F017894FF91EF919F918F912F91E8
:10FA40000F900BBE0F900FBE0F901F9018958091D6
:10FA50003E098E7F80933E09E8CF809163099091A3
:10FA60006409089580913F0990914009FC01EF5B82
:10FA7000F64FE08101969093400980933F09809171
:10FA8000630990916409892B59F0F8948091630976
:10FA90009091640901979093640980936309789425
:10FAA00080913F0990914009809720F01092400981
:10FAB00010923F098E2F0895282F8091650990910B
:10FAC000660980389105C8F780913E0980FF24C0FF
:10FAD0008091610990916209FC01E959F64F2083F8
:10FAE00001969093620980936109F8948091650969
:10FAF00090916609019690936609809365097894C0
:10FB000080916109909162098038910520F01092EE
:10FB100062091092610908955D9BFECF5E9A2CB92F
:10FB200080913E09816080933E09EACFF89410925B
:10FB3000100110920F017894089520910F013091D7
:10FB40001001C9010895282F80E092E10E945FFE14
:10FB5000CB010197222361F41092900089B98AB1F8
:10FB600088618AB980919500866080939500089598
:10FB7000109298008093990080919A0088618093F8
:10FB80009A0080919D00866080939D000895F8946E
:10FB900080E094E29BBD8ABD1DBC1CBC8AE08EBD8A
:10FBA00087B7806187BF1092100110920F0180E02B
:10FBB00060E874E00E94A3FD8AB1806C8AB98BB1C1
:10FBC0008F738BB91092660910926509809165094F
:10FBD0009091660990936409809363098091630909
:10FBE000909164099093EA098093E9098091E90969
:10FBF0009091EA099093620980936109809161096B
:10FC0000909162099093400980933F0980913F0948
:10FC1000909140099093E8098093E70910923E097A
:10FC200078940895FC01808190E002C095958795B5
:10FC30006A95E2F781700895FC01DB0121E030E074
:10FC400002C0220F331F4A95E2F7808190E08223A1
:10FC50009323892BD1F38C910895FC01808190E04E
:10FC600002C0959587956A95E2F780958170089511
:10FC70000F931F93182FFB01DA01422F21E030E090
:10FC800002C0220F331F0A95E2F7808190E08223A1
:10FC90009323892BD1F3208181E090E002C0880F6B
:10FCA000991F4A95E2F7282B20831C931F910F91EF
:10FCB0000895FC0160936800C895802D0895AA1BE3
:10FCC000BB1B51E107C0AA1FBB1FA617B70710F047
:10FCD000A61BB70B881F991F5A95A9F78095909579
:10FCE000BC01CD0108952F923F924F925F926F9287
:10FCF0007F928F929F92AF92BF92CF92DF92EF92BC
:10FD0000FF920F931F93CF93DF93CDB7DEB7CA1B3C
:10FD1000DB0B0FB6F894DEBF0FBECDBF09942A8867
:10FD2000398848885F846E847D848C849B84AA840F
:10FD3000B984C884DF80EE80FD800C811B81AA819C
:10FD4000B981CE0FD11D0FB6F894DEBF0FBECDBF67
:08FD5000ED010895F894FFCFC6
:00000001FF
