:0300000002002DCE
:0C002D00787FE4F6D8FD7581070200FB27
:1000FB0012012D12011730CFFDC2CF75C7AA75C7DC
:0C010B005543AA4012009512000780EA3C
:10011700E490000CF090000DF0900006F0A3F09032
:060127000009F0A3F02224
:0100070022D6
:1000950020871B900003E004F0E0D3940A4014E4A9
:1000A500F090000DE09455500AE004F08005E490CE
:1000B5000003F020861B900005E004F0E0D3940ACD
:1000C5004014E4F090000DE0D394004009E014F0F2
:0700D50022E4900005F02277
:03000B0002003EB2
:10003E00C0E0C083C082C0D075D000C006C007C269
:10004E008D90000BE0C394645027E004F0A3E0FF12
:10005E0090000BE0FEC39F5004D2808002C28090BD
:10006E00000DE0FFEEC39F5004D281800DC281804F
:10007E000990000BE4F0C280C281D007D006D0D028
:07008E00D082D083D0E032E4
:03003B00020003BD
:0400030075EC003266
:10012D0053A87F12014012000E1200DC12014A4347
:03013D00A8802275
:0A01400075C7AA75C7555396FC2237
:10000E0053B1FC43B2035380FC43B1C053B23F43E0
:0F001E00B32053B4DF75E94175EA2075EB20225A
:1000DC00758902538EF7758A91758C91D2A94388D4
:0F00EC0010E4F5C875C9A0F5CA75CBE5D2CA22D4
:0A014A0075C7AA75C75575AAC32230
:00000001FF
