:030000000202D722
:0C02D700787FE4F6D8FD75812B02031E31
:1004F30012054512055B30CFFDC2CF120223120055
:0C0503008E1200031204881204D380EA58
:10000300E5287004D293801AC293E52AB40105E46B
:10001300F527F52A0527E527D394054005E4F527B9
:0B002300F528E5297003C2B022D2B01E
:01002E0022AF
:10048800E5171460131460131460131460131460D8
:10049800132405701202050F02016A0203630203A6
:0804A800DD02043512052A22D1
:10050F00E519B40115E4F519D292D280D283D291B4
:0B051F00D281D284D290D282D28522F9
:10016A00E5196401701EF519D292D280D283D29118
:10017A00D281D284D290D282D285F51CF51DF51A8D
:10018A00F51BF51E051CE51CC3943C400FE4F51C49
:10019A00051EE51ED394084003E4F51EE51EB409C6
:1001AA000050569001B4F82828730201CF0201D5F5
:1001BA000201DB0201E10201E70201ED0201F302A1
:1001CA0001F90201FFD285C292802ED292C28080AA
:1001DA0028D280C2838022D283C291801CD291C24B
:1001EA00818016D281C2848010D284C290800AD2C1
:1001FA0090C2828004D282C285051AE51AC3946429
:10020A004016E4F51A051BE51B941E400BE4F51B8A
:09021A00F5188518177519012269
:10036300E5196401701EF519D292D280D283D2911D
:10037300D281D284D290D282D285F51CF51DF51A92
:10038300F51BF51E051CE51CC3941E400FE4F51C6C
:10039300051EE51ED394024003E4F51EE51E14601A
:1003A3000D14601024027010D284C291800AD2917D
:1003B300C2818004D281C284051AE51AC3946440C1
:1003C30018E4F51A051BE51B9405400DE4F51BF530
:0A03D30018851817751901F520228E
:1003DD00E519B4011BE4F519D292D280D283D291E2
:1003ED00D281D284D290D282D285F51CF51DF51E14
:1003FD00051CE51CC3943C4005E4F51C051EE51EDB
:10040D0014600F1460111460132403701AD285C286
:10041D009022D290C28222D282C28522E4F51EF5AC
:08042D0018851817751901224A
:10043500E519B4011BE4F519D292D280D283D29189
:10044500D281D284D290D282D285F51CF51DF51EBB
:10045500051CE51CC3941E400FE4F51C051EE51E96
:10046500D394024003E4F51EE51E14600C14600EDF
:100475002402700ED283C29222D292C28022D280EE
:03048500C283220D
:10052A00E519B40115E4F519D292D280D283C291A9
:0B053A00C281C284D290D282D28522FE
:1005450053A87F12057E12003E12007712056A122B
:06055500002F43A88022E4
:06057E00E4F596F595225C
:10003E00E4F5B175B2FF7580FF53B3F043B40F43CF
:10004E00900F43B3B043B4B053B3BF43B4405390D7
:10005E00BF53ACFE43AD0153B0FE43B18043B280FB
:09006E0075C7AA75C755F5A32258
:0F007700E4F5C875C9A075CAEF75CBD8D2CA22F7
:0D056A0043E9C143EAB043EBB0439B0222DA
:0A002F00758F077586CF759C0422BB
:0F055B0020970575250180037525027522012261
:10008E00E522B401190523E523D3940A4013E4F5C0
:10009E0022309505751F028008751F018003E4F557
:1000AE0023E51F601FB40108752101751802800B2E
:1000BE00E51FB40206E4F5217518018518177519A8
:1000CE0001E4F51FE5217026E5256078B401087579
:1000DE002401E4F5188006E4F52475180185181737
:1000EE00751901752801752A01E4F5258056E52557
:1000FE006032B4010E752401E51764046011E4F555
:10010E0018800CE4F524E51764046003751803E504
:10011E001764046006851817751901752801752A6C
:10012E0001E4F525E513601CB40108751704752963
:10013E00018005E4F517F529751901752801752A51
:10014E0001E4F513E514B40105751705800AE514ED
:0C015E00B40208E4F514F517751901222D
:03003B000204B00C
:1004B000C0E0E5EC30E506752201752300E5EC307F
:1004C000E70B209705752501800375250275EC0063
:0304D000D0E03247
:03008B00020577F4
:07057700538FE775160032F7
:1004D300E5177008E5287004E5157004E4F52B2290
:0F04E300052BE52BD3940A4006E4F52B43870243
:0104F20022E7
:0300860001120163
:10022300209423E4F50AE509703EF5150508E50871
:10023300C394C84036751302750901751601438FBF
:1002430008E4F50B8025E4F508E50B701BF515753F
:100253000C01050AE50AD394024010E4F50AE50E01
:1002630094325007050E8003751501E50C64017087
:1002730025050DE50DC394C8401FE4F50DF50CE508
:100283000E94144014E4F50EE516700D7513017504
:100293000B01F5098003E4F50D30871CE4F510F537
:1002A30012050FE50FD394014029E4F50FE5117012
:1002B3002275110175140122E4F50FF5110510E5FE
:1002C30010D39401400DE4F510E512700675120188
:0302D3007514029D
:0102D6002205
:1002E3000204F3E493A3F8E493A34003F68001F23A
:1002F30008DFF48029E493A3F85407240CC8C3331C
:10030300C4540F4420C8834004F456800146F6DFEA
:10031300E4800B0102040810204080900086E47EF4
:10032300019360BCA3FF543F30E509541FFEE493DF
:10033300A360010ECF54C025E060A840B8E493A3A6
:10034300FAE493A3F8E493A3C8C582C8CAC583CAD1
:10035300F0A3C8C582C8CAC583CADFE9DEE780BE89
:010089000076
:00000001FF
