S113001009289115031190158F1D8F3C101183151C
S1230020911111110D008E1D881D050BC615300B8C158D1D8B1D020BC115380B8115883B03
S12300400E003F0B84152428801D841BD00B0412033424282B28063A863A2E280F302E2871
S12300600F3C380B81150E00352813344D2806343A284328961D9719C80B171203304C2824
S1230080971D13384C28971D9619C80B161203304C28961D13384C282E284E2806355128F2
S12300A05E289B1D12356B289A19640B1A1203306B281239923D92389A1D6B289A1D923564
S12300C06B289B19640B1B1203306B289B1D9239123D923C6B286C2806346F287C28941D86
S12300E0923689289519640B151203308928951D923A123E123B8928951D12368928941937
S1230100640B141203308928941D123A923E123B89288A2812339C28123F92339A28923042
S123012092289628010B981512389C28020B981512389C28923B9C289D281234A428123CFE
S1230140063A863A991DA428010B18120330AD28020B18120330B028B228063A863ABD28DA
S11F0160063EB428863EB4289919C80B19120330BD28991D981D1238BD282E2807
S10507FE1328BA
S30500001230B8
S903FFFFFE
