:0300000002026792
:0C026700787FE4F6D8FD7581250202AE18
:10003E00E51E7004D287801AC287E520B40105E45C
:10004E00F51DF520051DE51DD394054005E4F51DB0
:0B005E00F51EE51F7003C28622D2864B
:010069002274
:10049600E515146010146010146010146010240424
:1004A600700F0204D40201B10202F302036A1203BE
:0204B600CF2253
:1004D400E517B40115E4F517D292D280D283D291F4
:0B04E400D281D284D290D282D2852235
:1001B100E5176401701EF517D292D280D283D291D5
:1001C100D281D284D290D282D285F51AF51BF5184C
:1001D100F519F51C051AE51AC3943C400FE4F51A0C
:1001E100051CE51CD394084003E4F51CE51CB40987
:1001F1000050569001FBF828287302021602021CD7
:1002010002022202022802022E02023402023A02F1
:100211000240020246D285C292802ED292C28080D2
:1002210028D280C2838022D283C291801CD291C203
:10023100818016D281C2848010D284C290800AD279
:1002410090C2828004D282C2850518E518C39464E5
:100251004013E4F5180519E519941E4008E4F51951
:06026100F51575170122DE
:1002F300E5176401701EF517D292D280D283D29192
:10030300D281D284D290D282D285F51AF51BF51808
:10031300F519F51C051AE51AC3941E400FE4F51AE6
:10032300051CE51CD394024003E4F51CE51C146092
:100333000D14601024027010D284C291800AD291ED
:10034300C2818004D281C2840518E518C394644035
:1003530015E4F5180519E5199405400AE4F519F5AE
:0703630015751701F50B22CF
:10036A00E5176401701CF517D292D280D283D2911C
:10037A00D281D284D290D282D285F51AF51BF51C8D
:10038A00F514051AE51AC3943C4005E4F51A051C50
:10039A00E51C14600F14601114601324037025D235
:1003AA0085C29022D290C28222D282C28522E4F5EC
:1003BA001CF5157517010514E514C3940A4005E4E4
:0403CA00F514F5161B
:0103CE00220C
:1003CF00E517B4011BE4F517D292D280D283D291F4
:1003DF00D281D284D290D282D285F51AF51BF51C28
:1003EF00051AE51AC3941E400FE4F51A051CE51C07
:1003FF00D394024003E4F51CE51C14600C14600E4A
:10040F002402700ED283C29222D292C28022D28054
:03041F00C2832273
:1005090053A87F12054512000312051F12052E126A
:06051900053B43A880220F
:06054500E4F596F5952295
:10000300E4F5B175B2FF7580FF53B3F043B40F430A
:10001300900F43B3B043B4B053B3B743B448539012
:10002300B743AC0143AD0175C7AA75C755F5A32204
:0F051F00E4F5C875C9A075CAEF75CBD8D2CA224A
:0D052E0043E9C143EAB043EBB0439B022216
:0A053B00758F03758664759C042219
:03003300010E01BA
:1004EF002097057512018003751202850A0F750C8E
:0A04FF0001E50AB40103438F08224F
:10008E00E50EB401190510E510D3940A4013E4F5FA
:10009E000E309505750A028008750A018003E4F595
:1000AE0010E50A60670508E508D394024063E4F59D
:1000BE0008E50A64017023209520E50F6401601A9B
:1000CE00750901750D01751602E50C640160037565
:1000DE000B01850A0F438F08801DE50AB402183004
:1000EE009515E50F6402600F750901E4F50D75169F
:1000FE0001850A0F538FF7E509B40109E4F5098567
:10010E001615751701E4F50CF50A8005E4F508F5EA
:10011E0009E50D7028E51270030201B0B4010875EF
:10012E001101E4F5168006E4F51175160185161514
:10013E00751701751E01752001E4F51222E50B708D
:10014E0061E5126020B40108751101E4F516800610
:10015E00E4F511751603851615751701751E0175D3
:10016E002001E4F512E51164017037E5226022B436
:10017E00020B751301751504751F018007E4F51345
:10018E00F515F51F751701751E01752001E4F52291
:10019E0022E513B4010CE5156404600675150475AB
:0201AE00170137
:0101B000222C
:03003B0002047349
:10047300C0E0E5EC30E506750E01751000E5EC30E3
:10048300E70B209705751201800375120275EC00C6
:03049300D0E03284
:10006A00E5157004E51E6004E4F525220525E5255D
:0B007A00D3940A4006E4F525438702FA
:010085002258
:03003600012100A5
:10042200E52364017023F523D2937FC8AE071FEE44
:1004320070FA20B0073094047522022230940C30F6
:0B044200B00975220175240122C2934D
:01044D00228C
:03008B0002044E1E
:04044E00C0E0C0D07A
:10045200538FEFE524B401110521E521C3940A402D
:0C0462000B752100752400800375230138
:05046E00D0D0D0E03207
:1004B8001205091204EF30CFFDC2CF120422120038
:0C04C8008E12003E12049612006A80EAB8
:100273000204B8E493A3F8E493A34003F68001F2E5
:1002830008DFF48029E493A3F85407240CC8C3338C
:10029300C4540F4420C8834004F456800146F6DF5B
:1002A300E4800B0102040810204080900033E47EB8
:1002B300019360BCA3FF543F30E509541FFEE49350
:1002C300A360010ECF54C025E060A840B8E493A317
:1002D300FAE493A3F8E493A3C8C582C8CAC583CA42
:1002E300F0A3C8C582C8CAC583CADFE9DEE780BEFA
:0100390000C6
:00000001FF
